:020000040800F2
:10000000900D0020198100085102000853020008D9
:10001000570200085B0200085F02000800000000B1
:100020000000000000000000000000006302000863
:10003000650200080000000067020008690200086D
:1000400033810008338100083381000833810008C0
:1000500033810008338100083381000833810008B0
:1000600033810008338100083381000833810008A0
:100070003381000833810008338100083381000890
:100080003381000833810008338100083381000880
:100090003381000833810008338100083381000870
:1000A0003381000833810008338100083381000860
:1000B0003381000833810008338100083381000850
:1000C0003381000833810008338100083381000840
:1000D000338100088D8000083381000833810008D7
:1000E0003381000833810008338100083381000820
:1000F0003381000833810008338100083381000810
:1001000033810008338100083381000833810008FF
:100110003381000833810008030A00083381000896
:1001200033810008338100083381000833810008DF
:1001300033810008338100083381000833810008CF
:1001400033810008338100083381000833810008BF
:1001500033810008338100083381000833810008AF
:10016000338100083381000833810008338100089F
:10017000338100083381000833810008338100088F
:100180003381000833810008DFF80CD00AF0C6FF85
:10019000004800479D010008900D00202DED048BC4
:1001A00082B04FF4A06007F0C9FF00F0BEFCA820A9
:1001B00007F08AFE4FF4E13007F016FF02F0BCFEB4
:1001C00007F024FE1C4908688047A72140F2F3107D
:1001D00000F006FA5321632000F0F3FB00F07DFBF2
:1001E00001F01EFC4FF4FA71144808F026FE4FF49B
:1001F000FA71124808F023FE1DE001F0BCFD01F089
:10020000ADFE0F4800680AF0B4FD41EC180B0D4834
:1002100090ED000A10EE101A08460AF0AAFD41EC13
:10022000190B8DED008B53EC192B07A00AF088FFFA
:100230000A2007F0ABFEE0E7840000200004014044
:1002400024000020140000200D0A25662566000009
:10025000704700BFFEE700BFFEE700BFFEE700BF3C
:10026000FEE7704770477047704700000CB50020EC
:10027000019000907648006840F48030744908602E
:1002800000BF7348006800F4003000900198401CE3
:100290000190009818B90198B0F5A04FF1D16C48C1
:1002A000006800F4003010B10120009001E000204F
:1002B00000900098012846D165484030006840F021
:1002C00080506349403108606248006840F4404013
:1002D000604908605E48083000685D490831086080
:1002E0000846006840F4004008600846006840F492
:1002F000A05008605848091F0860081F006840F0B7
:100300008070091F086000BF5148006800F000704D
:100310000028F9D040F20570504908604C48083078
:10032000006820F003004A49083108600846006868
:1003300040F00200086000BF45480830006800F047
:100340000C000828F8D10CBD10B54548006840F4F1
:100350007000434908603E48006840F001003C4995
:10036000086000203A4908310860394800683D4972
:100370000840374908603C48091D0860081F0068AC
:1003800020F48020091F0860002031490C310860EA
:10039000FFF76CFF4FF0006031498039086010BDF5
:1003A00070B500200022022300240221284D0835C8
:1003B0002D6805F00C0020B1042806D0082834D19F
:1003C00007E02A4D2A4E356033E02A4D284E35602D
:1003D0002FE01F4D2D1D2D68C5F380541C4D2D1D84
:1003E0002D6805F03F0154B1224DB5FBF1F5184ED3
:1003F000361D3668C6F3881605FB06F209E01B4D6C
:10040000B5FBF1F5124E361D3668C6F3881605FBAE
:1004100006F20F4D2D1D2D68C5F301456D1C6B00B7
:10042000B2FBF3F5124E356003E0104D104E35600F
:1004300000BF00BF064D08352D68C5F303150E4EED
:10044000705D0B4D2D68C540094E356070BD0000D4
:10045000003802400070004008544007003C024051
:1004600088ED00E0FFFFF6FE103000240024F400C9
:100470000000002000127A000400002030B52DEDAD
:10048000048B8DB004460D460121022009F0C0FA0C
:100490000B94A8B2ADF828000020ADF83000ADF8FC
:1004A0002A008DF832000AA9524808F0D8FA6020D4
:1004B000ADF814000120ADF816000420ADF81800C6
:1004C00020460AF030FC41EC190B9FED4B0B53EC2E
:1004D000102B0AF036FB41EC180B0AF031FC0790A8
:1004E0000020ADF82000ADF822004FF48070ADF888
:1004F00024000020ADF8260005A93E4808F044FB82
:1005000005A93C4808F079FB08213A4808F0C9FCE5
:100510000821384808F0CEFC4FF40060ADF8040024
:100520004010ADF806008010ADF808000F20ADF8BF
:100530000A004FF48040ADF8100001A92D4808F0E2
:10054000EFFE012211462B4808F02AFF012129481D
:1005500008F00EFB0121274808F0FBFE0DB0BDECB2
:10056000048B30BD1CB50121072009F0F7F90322E7
:100570000621234807F063FF03220721214807F0E3
:100580005EFF032207211E4807F059FF03220E21B8
:100590001D4807F054FF00208DF806008DF8070075
:1005A00003208DF805004020009002208DF8040003
:1005B0006946134807F0B8FE80200090694611484C
:1005C00007F0B2FE8020009069460D4807F0ACFEAF
:1005D0004FF48040009069460B4807F0A5FE1CBD13
:1005E00070B504460D46FFF7BDFF29462046FFF7CC
:1005F00045FF70BD00040140000000000000E03F26
:100600000008024000000240000402402DE9F041D1
:100610002DED088B00240025002600BF09E0B2481C
:1006200030F824000544B04800EB840040880644BC
:10063000641CB4F5FA7FF2DB28460AF074FB41EC47
:100640001B0B9FEDAA0B53EC102B0AF07AFA41EC2E
:100650001A0B9FEDA80B53EC102B0AF0E4FA41ECB7
:10066000190B9FEDA60B53EC102B0AF0DCFA41ECB2
:10067000180B0AF0C1FBA34908604FF4FA70B6FBEF
:10068000F0F738460AF04FFB41EC1A0B9FED970B41
:1006900053EC102B0AF055FA41EC190B9FED950B1A
:1006A00053EC102B0AF0BFFA41EC180B0AF0A4FB34
:1006B00094494860BDEC088BBDE8F0812DE9F04716
:1006C0002DED0C8B0024002532260027A04600BF0C
:1006D0000FE0002409E0844830F8240007448248F1
:1006E00000EB840040888044641CB4F5FA7FF2DBA0
:1006F0006D1CB542EDDB30460AF004FB41EC190BF2
:1007000038460AF010FB41EC1D0B9FED780B53ECC3
:10071000102B0AF016FA41EC1C0B9FED760B53ECF4
:10072000102B0AF080FA41EC1B0B9FED740B53EC7D
:10073000102B0AF078FA41EC1A0B53EC192B0AF043
:1007400072FA41EC180B0AF057FB6E49086030460C
:100750000AF0D8FA41EC190B4FF4FA70B8FBF0F933
:1007600048460AF0E0FA41EC1C0B9FED600B53EC9D
:10077000102B0AF0E6F941EC1B0B9FED5E0B53ECDE
:10078000102B0AF050FA41EC1A0B53EC192B0AF01B
:100790004AFA41EC180B0AF02FFB5A494860BDECAD
:1007A0000C8BBDE8F0871CB50121042009F0D6F8B8
:1007B0000121084609F0D2F80120009003208DF8AD
:1007C000040000208DF8070069464F4807F0ACFD93
:1007D0001020009003208DF8040000208DF8070001
:1007E00069464A4807F0A0FD1CBD00B599B001213B
:1007F000880509F0B3F846480B903B480C90002060
:100800000D904FF47A700E9000200F904FF480609E
:100810001090400011901290C0101390400214905C
:1008200000201590012016900020179018900A9033
:100830000AA9384809F0BAFC0121364809F0F0FC51
:100840000121080209F0E4F80121480209F0E0F86A
:10085000062000904FF4803001908010029000201C
:100860000390684609F008FA04A809F0FBF9002093
:1008700004908DF8140001208DF8150000200690DA
:100880000790089001208DF8240004A9224809F05F
:10089000C4F9002301220A211F4809F044FA04A9DF
:1008A0001E4809F0BAF90023012204211B4809F06F
:1008B0003AFA012009F0EDFA0121174809F0D3FABC
:1008C0000121154809F0EFF90121144809F0EBF96D
:1008D000114809F084FA19B000BD10B5FFF763FFA5
:1008E000FFF783FF10BD0000DC000020666666662F
:1008F00066660A40000000000000B04000000000F2
:1009000000407F4014000020000802400000024028
:1009100008230140106402400020014000210140F2
:10092000F0EE400A8B48D0ED001A71EEA01AC0ED2F
:10093000001A8948D0ED001A70EEE11AB0EE611A83
:10094000864890ED002A8648D0ED001AF8EEE11AAC
:1009500062EE211A61EEA01A8248D0ED002A824888
:1009600090ED002AB8EEC22A22EE822A7948D0ED14
:10097000002A42EE221A7D48D0ED002A7C4890EDF4
:10098000002AB8EEC22A22EE822A42EE011AB0EE06
:10099000610ADFED781AB4EEE10AF1EE10FA04DD37
:1009A000DFED741AB0EE610A0AE0DFED731AB4EEFF
:1009B000E10AF1EE10FA03D2DFED6F1AB0EE610A30
:1009C00070473EB505460C460121102009F00FF88E
:1009D000681E0190601E80B2ADF800000020ADF8E6
:1009E0000800ADF802006946644808F038F80121B3
:1009F000624808F0BDF801221146604808F0D0FCBA
:100A00003EBD10B52DED048BFFF700FE5C4890ED68
:100A1000000A5C4880ED000A594890ED010A5A48E6
:100A200080ED000A594890ED000A5648D0ED000AC2
:100A300030EE600A564880ED000A564890ED000AF4
:100A40005148D0ED000A30EE600A534880ED000AAC
:100A50004F4890ED000AFFF763FF10EE104A204662
:100A60000AF087F941EC190B9FED4C0B53EC102B5E
:100A70000AF067F841EC180B0AF0BEF94949086022
:100A8000084690ED000AF7EE000A30EE200AF0EE7C
:100A9000000A80EE201A80ED001A3F4890ED000A0F
:100AA000FFF73EFF10EE104A20460AF062F941ECD3
:100AB000190B9FED3A0B53EC102B0AF042F841EC66
:100AC000180B0AF099F938490860084690ED000AB9
:100AD000F7EE000A30EE200AF0EE000A80EE201A4F
:100AE00080ED001A2F4890ED000ADFED300A20EE6D
:100AF000200ABCEEC00A10EE101A2D4808F09DF92D
:100B0000294890ED000ADFED290A20EE200ABCEE0C
:100B1000C00A10EE101A264808F091F90121174872
:100B200008F066FCBDEC048B10BD08B54FF4806086
:100B300007F004FB36208DF8000003208DF801003B
:100B400001208DF802008DF80300684607F0FBFADB
:100B500008BD0000480000204C0000203C000020A0
:100B600050000020400000205400002044000020DD
:100B7000580000200000C8420000C8C20010004019
:100B8000140000201C000020200000202C00002069
:100B90003400002030000020380000207B14AE47D5
:100BA000E17A843F24000020280000200000FA435E
:100BB0000004014010B505F0A5FF10BD70B5044656
:100BC000002605F0BEFF2546E11704EB116109126E
:100BD000A02202EB4101C8B206F05FF805F0F2FF77
:100BE000E11704EB11610912A4EB0121C8B206F070
:100BF00054F805F0E7FF05F0A4FFA12006F04DF83A
:100C000005F0E0FF002006F075F8064605F0BBFF92
:100C1000304670BD70B504460E4605F092FF25467D
:100C2000E11704EB11610912A02202EB4101C8B2E5
:100C300006F033F805F0C6FFE11704EB1161091265
:100C4000A4EB0121C8B206F028F805F0BBFF30463E
:100C500006F023F805F0B6FF05F095FF0A2007F02F
:100C600095F970BD2DE9F04105460E461746002462
:100C700009E0E20026FA02F2D1B22A1990B2FFF797
:100C8000C9FF601CC4B2BC42F3DBBDE8F0812DE9B2
:100C9000F04107460C460026002509E036023919C6
:100CA000491B491E88B2FFF789FF0644681CC5B27C
:100CB000A542F3DB3046BDE8F08110B5FF20FFF719
:100CC0007DFF0446552C01D1002010BD5521FF2089
:100CD000FFF7A0FFFF20FFF771FF0446552C01D15D
:100CE0000020F2E70120F0E770B506460C461546F5
:100CF00008E03046721C96B2FFF760FF04F8010B63
:100D0000681E85B2002DF4D170BD70B505460C4645
:100D1000164606E021782846FFF77CFF681C85B25E
:100D2000641C3000A6F101018EB2F3D170BD000049
:100D300010B5022007F0E2F810BD1CB501212220F9
:100D400008F00CFE012000908DF8040000208DF8C2
:100D5000060001208DF807006946844807F0E4FA90
:100D60004FF40060009001208DF80400694680482F
:100D700007F0DAFA1CBD10B57D48006820F4400089
:100D80007B4908600846006840F480000860012044
:100D9000784908607849C1F880021E2007F0AEF853
:100DA000002074490860FFF7C3FF00207249C1F8B2
:100DB000800210BD10B56E48006820F440006C49F8
:100DC00008600846006840F48000086001206B4914
:100DD00008601E2007F092F800206949C1F8AC02B3
:100DE000FFF7A6FF01206349086010BD10B500247D
:100DF0005F48006820F440005D49086008460068CC
:100E0000086001205B4908605B49C1F88002FFF778
:100E10008FFF09E0601CC4B2FA2C03DDFFF7CAFFA4
:100E2000012010BDFFF784FF524880380068002879
:100E3000F0D15249086000BFF3E710B500204F49D8
:100E400008604B48006820F44000494908600846A3
:100E5000006840F480000860FFF76AFF00204849FE
:100E6000C1F8AC02FFF764FF012044490860FFF7B6
:100E70005FFF00204049C1F8800210BD10B500207E
:100E80003E4908603A48006820F44000384908604C
:100E90000846006840F480000860FFF749FF012021
:100EA0003749C1F8AC02FFF743FF0120334908601E
:100EB000FFF73EFF00203049C1F8800210BD70B539
:100EC00004462B48006820F4400029490860084681
:100ED000006840F480000860002028490860FFF79F
:100EE00027FF002511E0E009224908606006040E92
:100EF00001202149C1F88002FFF71AFF00201F4995
:100F00000860FFF715FF681CC5B2082DEBDB70BD4C
:100F100070B5054600241648006820F440001449C6
:100F200008600846006808601E2006F0E7FF0026FB
:100F300012E0002011490860FFF7FAFE01200E4977
:100F4000C1F880026006040E0A488038006808B1C3
:100F5000601CC4B2701CC6B2082EEADB15B9FFF7DC
:100F60008DFF01E0FFF769FF204670BD00040240DD
:100F700000140240AC8242420080404280824042E3
:100F8000008042422DE9F04104460E4617464FF0DC
:100F90000008FFF7F0FE2820FFF791FFFFF726FF7C
:100FA0002012FFF78CFFFFF721FFE0B2FFF787FF6A
:100FB000FFF71CFF00250BE0705DFFF780FFFFF7D8
:100FC00015FF8046B8F1000F00D003E0681CC5B2E1
:100FD000BD42F1DB00BFFFF7EDFE4046BDE8F0810A
:100FE00038B50546002400208DF800008DF801502A
:100FF00000BF09E09DF80000E149095D0844C0B266
:101000008DF80000601CC4B2B82CF3D39DF800002A
:10101000C043401CC0B28DF80000B822D84948F245
:101020004700FFF7AFFF0222694648F2FF00FFF7D3
:10103000A9FF002038BD2DE9F04105460F461646B0
:10104000FFF799FE2820FFF73AFFFFF7CFFE28129F
:10105000FFF735FFFFF7CAFEE8B2FFF730FFFFF7F3
:10106000C5FEFFF788FE2920FFF729FFFFF7BEFE28
:1010700000240BE0711EA14201D0012100E00021FB
:101080000846FFF745FF3855601CC4B2B442F1DB97
:10109000FFF790FEBDE8F0811FB50121062008F0A2
:1010A0005DFC0220009000208DF804008DF8060001
:1010B00003208DF8050001208DF807006946B1482E
:1010C00007F032F94FF40050009001208DF8040031
:1010D0006946AD4807F028F9FFF72FFE0020AB491D
:1010E00008600A2006F052FF0120A949C1F8B402A5
:1010F0000A2006F04BFF0220009001208DF804002A
:1011000000208DF8070069469E4807F00DF964201D
:1011100006F03CFF042202A948F24010FFF78BFFC3
:1011200000208DF80C0002A99AA00AF009F89CA1F1
:1011300002A809F051FC48BB02208DF808000122EA
:1011400002A948F24000FFF71DFF012202A948F260
:101150004700FFF770FF9DF80800602807DA9DF848
:10116000081091A009F0ECFF0120FFF739FF0A20D9
:1011700006F00CFF00208DF80800012202A948F2B9
:101180004000FFF7FFFE002004B010BD0120FBE788
:1011900071B583B00024002688480078401C874938
:1011A0000870084600780A2190FBF1F201FB12005A
:1011B00018B1824800780A287EDA012203A948F291
:1011C0004E10FFF738FF9DF80C0000F0800068B16A
:1011D0009DF80C0000F00F00062807DA00200190AF
:1011E000012201A948F24E10FFF7CCFE9DF80C0039
:1011F00000F00F0000285FD09DF80C0000F00F00F9
:101200000628D9DA9DF80C0000F00F01FF20884075
:10121000C0B201906A4890F820509DF80400C04385
:10122000C0B240F0C000664981F8200008468189BC
:101230008182C18AC183002446E0614890F8200081
:101240000121A140084020B35E4931F81400042276
:1012500002A9FFF7F0FE5A4890F8300000F00100B4
:10126000C0B19DF808009DF8091000EB012081B283
:101270005348163020F814109DF80A009DF80B1002
:1012800000EB0120C0F5487081B24D480C3020F8C9
:10129000141017E09DF808009DF8091000EB0120DC
:1012A00081B247480C3020F814109DF80A009DF8D0
:1012B0000B1000EB012000E036E081B24048163010
:1012C00020F81410601CC4B2052CB6DB01263C4883
:1012D00080893D490988884205DC3948C08A3A49F5
:1012E000498888421DDD9DF80C0000F00F000128A0
:1012F0000ADD3348C089324988810846008BC8829C
:1013000000202E4908700FE02D48808A2C498881E2
:101310000846C08BC88280200390084680F8205081
:1013200002E00020254908709DF80C0000F08F00B5
:1013300080281AD1224890F8200000F0800040B1A7
:101340001F4890F8200020F080001D4981F82000FF
:101350000BE04FF6FF701A498881C882084690F862
:10136000200000F0E00081F8200014480078F02808
:1013700002DD0A2011490870304604B070BD00003B
:10138000C8BA00080004024000080240B40241420A
:10139000000041424354502049443A25730D0A004D
:1013A000393134370000000044656661756C742083
:1013B0005665723A25640D0A000000005C000020AA
:1013C0008400002080BB0008B6080020FD4A108081
:1013D0004FF0D842A2F88010704701B5BDF8000068
:1013E0000090BDF80000F749891C088008BD01B5D0
:1013F000BDF800000090BDF80000F249088008BD6B
:1014000070B504460D461646EF48808849F24131D2
:10141000884205D0EC48808845F21031884214D1CA
:10142000E9494889FFF7E3FF2012FFF7D6FFE0B252
:10143000FFF7D3FFE4498889FFF7D9FF2812FFF7A8
:10144000CCFFE8B2FFF7C9FF8CE0DF48808845F2A7
:101450001051884220D1DC494889FFF7C8FF20128B
:10146000FFF7BBFFD8494989491C88B2FFF7BFFF86
:10147000E0B2FFF7B2FFD4498889FFF7B8FF28121E
:10148000FFF7ABFFD0498989491C88B2FFF7AFFF4E
:10149000E8B2FFF7A2FF65E0CB48808841F6631110
:1014A000884228D1C848807920B9C7480088401EA2
:1014B000001B84B2C4494889FFF799FF2012FFF747
:1014C0008CFFE0B2FFF789FF2012FFF786FFE0B242
:1014D000FFF783FFBC498889FFF789FF2812FFF7D0
:1014E0007CFFE8B2FFF779FF2812FFF776FFE8B23A
:1014F000FFF773FF36E0B448808846F6040188425F
:101500001DD1B1488079012804D1AF480088401E20
:10151000001B84B2AC494889FFF769FF2012FFF72E
:101520005CFFE0B2FFF759FFA7498889FFF75FFF2B
:101530002812FFF752FFE8B2FFF74FFF12E0A24870
:101540008079012804D1A0480088401E001B84B285
:101550009D4948892146FFF739FF9B4988892946DB
:10156000FFF734FF98480089964908804FF0D8402B
:10157000A0F8806070BD2DE9F84F80460E461746F2
:101580001C46B3462046E31704EB5373DB10214699
:101590004FEAE47C04EB5C7C4FEAEC0CA4EBCC0C53
:1015A000BCF1000F02D04FF0010C01E04FF0000C35
:1015B0006344224604EBD27C4FEA6C0C03FB0CF331
:1015C000DBB20093A7F12000C7B2002556E00C2C37
:1015D00007D107EB47007D4901EB800010F805902B
:1015E00013E0102C05D17A4800EB071010F8059095
:1015F0000BE0182C07D107EBC700764901EB800000
:1016000010F8059001E0BDE8F88F4FF0000A2FE0D8
:1016100009F0800030B17048028831464046FFF73B
:10162000EFFE07E00A9828B96C4802883146404628
:10163000FFF7E6FE4FEA49604FEA1069701C86B278
:1016400061484088B04200DCDDE7A6EB0B00A04219
:101650000AD15E4608F101001FFA80F85A48008856
:10166000404500DCCFE706E00AF1010000F0FF0A88
:10167000BAF1080FCCDB00BF681CC5B200988542E8
:10168000A5DB00BFBFE72DE9F84704460D469046AD
:101690009946DDE9096704F0FF0A08EB04001FFA28
:1016A00080F809EB05001FFA80F916E0444502DBDB
:1016B0005446A81985B24D4500DB14E00020009087
:1016C0003A78334629462046FFF755FF304606EB69
:1016D000D07104EB61018CB27F1C38787E2802DC6B
:1016E00038782028E2DA00BFBDE8F887364800895C
:1016F00034490880704730B504460D46324880882A
:1017000049F24131884205D02F48808845F2103196
:10171000884214D12C494889FFF769FE2012FFF74F
:101720005CFEE0B2FFF759FE27498889FFF75FFEAC
:101730002812FFF752FEE8B2FFF74FFEB9E0224849
:10174000808846F6040188421DD11F48807901280F
:1017500004D11D480088401E001B84B21A494889E4
:10176000FFF745FE2012FFF738FEE0B2FFF735FE27
:1017700015498889FFF73BFE2812FFF72EFEE8B2D5
:10178000FFF72BFE95E01048808841F663118842F0
:1017900055D10D48807918BB0B480088401E001BAE
:1017A00084B209494889FFF722FE0020FFF715FEA1
:1017B0000020FFF712FE2012FFF70FFEE0B2FFF746
:1017C0000CFE24E07E00006CB60800208ABB0008F6
:1017D000FEBF0008EEC50008800000208200002047
:1017E000FE494889FFF703FE2012FFF7F6FDE0B23D
:1017F000FFF7F3FDF9490988491EC1F30F20FFF7F0
:10180000ECFDF6490978491EC8B2FFF7E6FDF34939
:101810008889FFF7ECFD2812FFF7DFFDE8B2FFF73C
:10182000DCFDEE494988491EC1F30F20FFF7D5FDC5
:10183000EA498978491EC8B2FFF7CFFD39E0E74889
:10184000808845F21051884220D1E4494889FFF749
:10185000CEFD2012FFF7C1FDE0494989491C88B23D
:10186000FFF7C5FDE0B2FFF7B8FDDC498889FFF757
:10187000BEFD2812FFF7B1FDD8498989491C88B2FD
:10188000FFF7B5FDE8B2FFF7A8FD12E0D348807975
:10189000012804D1D1480088401E001B84B2CF49E2
:1018A00048892146FFF792FDCC4988892946FFF7F0
:1018B0008DFD30BD30B504460D4629462046FFF764
:1018C0001AFFFFF713FFC6480088C649088030BDDD
:1018D0002DE9FF4F84B081468A4600200390029094
:1018E0000698A0EB09050798A0EB0A06CDF804902E
:1018F000CDF800A0002D01DD012705E00DB900277E
:1019000002E04FF0FF376D42002E02DD4FF001087C
:1019100006E016B94FF0000802E04FF0FF387642BB
:10192000B54201DD2C4600E034464FF0000B21E0CB
:10193000009A91B2019A90B2FFF7BCFF0398284435
:1019400003900298304402900398A04205DD03986A
:10195000001B03900198384401900298A04205DDD5
:101960000298001B02900098404400900BF1010087
:101970001FFA80FB601C8345DADD08B0BDE8F08FFC
:10198000F0B504460D4616461F462B4632462946FC
:101990002046FFF79DFF3B46224629462046FFF79B
:1019A00097FF3B46324639462046FFF791FF3B46BC
:1019B000324629463046FFF78BFFF0BD70B504462E
:1019C000002686480588408845438448808846F636
:1019D0000401884216D181488079012812D1002063
:1019E0007E4988712A2048812B2088810021084661
:1019F000FFF781FE0120794988712B2048812A2038
:101A0000888103E000210846FFF775FEFFF76EFEB0
:101A1000002602E073480480761CAE42FAD370BD03
:101A2000F0B52DED028B83B0C42660247C272546BB
:101A30004FF6FF70FFF7C2FF1F20694908806AA0B8
:101A400018210B460A46CDE900102146BE20FFF7BB
:101A50001AFE66A018210B460A46CDE90010294659
:101A60007620FFF710FE62A018210B463022CDE948
:101A700000102146F720FFF706FE5EA018210B4656
:101A80003022CDE9001029461F20FFF7FCFD5AA0A7
:101A900018210B463022CDE9001060214FF4AF70C1
:101AA000FFF7F1FD55A018210B463022CDE90010BB
:101AB000C4214FF4AC70FFF7E6FD04F13003A4F14C
:101AC000180081B2E822A020FFF75AFF05F1300389
:101AD000A5F1180081B2A0225820FFF751FF04F1B0
:101AE0003003A4F1180081B24FF49872E820FFF798
:101AF00047FF05F13003A5F1180081B258221020EC
:101B0000FFF73EFF9023720048214FF4A070FFF7CB
:101B100037FFF4237200AC214FF4A070FFF730FFC1
:101B200037A018210B469022CDE900104C20FFF77A
:101B3000AAFD37A018210B469C22CDE90010A82150
:101B40004C20FFF7A0FD34A018210B469C22CDE9C4
:101B50000010C0214C20FFF796FD31A018210B4644
:101B60009C22CDE90010D8214C20FFF78CFD2FA03E
:101B700018210B465422CDE90010F0214C20FFF72C
:101B800082FD2CA018210B465422CDE900104FF401
:101B900084714C20FFF777FD28A018210B465422B2
:101BA000CDE900104FF490714C20FFF76CFD25A09B
:101BB00018210B465422CDE900104FF49C714C20A3
:101BC000FFF761FD21A018210B465422CDE900103A
:101BD00091004C20FFF757FD1EA03FE0B608002003
:101BE000800000208000006C2B0000002D00000011
:101BF00031302B0031302D0050000000202000003B
:101C0000205049445F463A31306B487A000000006A
:101C10005049445F4B703A005049445F4B693A0069
:101C20005049445F4B643A20202020005345545FC4
:101C300055313A005345545F55323A004144435FB1
:101C400055313A004144435F55323A0044555459A6
:101C50005F313A00445554595F323A0018210B461F
:101C60005422CDE900104FF4B4714C20FFF70BFD66
:101C7000FAA018210B463022CDE900104FF4D271A2
:101C80008820FFF700FDF7A018210B464822CDE978
:101C900000104FF4D271DC20FFF7F5FCF3A01821FF
:101CA0000B464822CDE900104FF4D2711C20FFF7FB
:101CB000EAFC4FF4E473D0224FF4CC717020FFF7AC
:101CC0005FFE4FF4E4734FF498724FF4CC71D02060
:101CD000FFF756FE4FF4E47310224FF4CC717020DE
:101CE000FFF74EFEE348006809F043F841EC180B9B
:101CF00053EC182BE0A1E24809F032FAE048182131
:101D00000B463022CDE90010A821A020FFF7BBFC34
:101D1000DC48006809F02DF841EC180B53EC182B47
:101D2000D9A1D74809F01CFAD54818210B46302212
:101D3000CDE90010C021A020FFF7A5FCD448006821
:101D400009F017F841EC180B53EC182BCAA1CC483A
:101D500009F006FACA4818210B463022CDE90010D6
:101D6000D821A020FFF78FFC7802CA49088003B071
:101D7000BDEC028BF0BD00B52DED028B83B0C648E3
:101D8000006808F0F6FF41EC180B53EC182BC3A1C8
:101D9000BB4809F0E5F9BA4818210B463C22CDE9C9
:101DA0000010F021A020FFF76EFCBE48006808F08C
:101DB000E0FF41EC180B53EC182BB8A1B04809F028
:101DC000CFF9AF4818210B463C22CDE900104FF463
:101DD0008471A020FFF757FCB34890ED000A10EE85
:101DE000101A084608F0C5FF41EC180B53EC182BED
:101DF000AAA1A34809F0B4F9A14818210B463C2236
:101E0000CDE900104FF49071A020FFF73CFCA648EC
:101E100090ED010A10EE101A084608F0AAFF41ECF6
:101E2000180B53EC182B9DA1954809F099F994488B
:101E300018210B463C22CDE900104FF49C71A020E4
:101E4000FFF721FC9948006808F093FF41EC180B5C
:101E500053EC182B91A18A4809F082F9884818217F
:101E60000B463C22CDE900104FF4A871A020FFF7EB
:101E70000AFC8F48006808F07CFF41EC180B53EC1B
:101E8000182B86A17E4809F06BF97D4818210B4676
:101E90003C22CDE900104FF4B471A020FFF7F3FB12
:101EA00003B0BDEC028B00BD2DE9FC4F05460E468C
:101EB00017469846DDF82C90002001907D488088D8
:101EC00046F60401884229D17A488079012825D133
:101ED000AB46354677480088C01B401E86B2474651
:101EE00074480088A0EB0B00401E1FFA80F8002009
:101EF000704988712A2048812B20888143463A46C0
:101F000031462846CDF80090FFF7CEFF0120694901
:101F100088712B2048812A2088811DE0781B401C75
:101F200080B20190344615E021462846FFF7E3FBD6
:101F3000FFF7DCFB4FF0000A07E04FF0D840A0F8B5
:101F400080900AF101001FFA80FA01988245F4DBC3
:101F5000601C84B24445E7DDBDE8FC8F10B52DED73
:101F6000088B82B0002454484168002088475248BA
:101F700090F820000121A140084000286CD04F4873
:101F800000780028FAD000204C4908704A4880891F
:101F900048490988884231DA4748C08A4549498812
:101FA0008842F8DA44488089B0F5A07F27DD4248AE
:101FB0008089B0F5C47F22DA3F48C08A48281EDDF8
:101FC0003D48C08A90281ADA3D480078401C3C49B8
:101FD000087008460078032801D1002008703948AD
:101FE0003749097850F8210018210B463022CDE9F5
:101FF000001060214FF4AF70FFF745FBB8E22E48A8
:102000008089B0F5A07F63DD2B488089B0F5C47F5F
:102010005EDA2948C08AAC285ADD2748C08AF428ED
:1020200056DA29480078401C27490870084600788D
:10203000032801D10020087024482349097850F86A
:10204000210018210B463022CDE90010C4214FF4A5
:10205000AC70FFF718FB8BE280E239E053544F502D
:102060000000000020505F4F4E2020005049445F88
:102070004F4E00003C00002025332E30660000004B
:10208000AC0800204000002025332E3166000000FF
:1020900044000020800000202C00002025342E3336
:1020A0006600000030000020140000202400002002
:1020B00028000020B60800208400002061000020D5
:1020C00062000020680000206300002074000020EF
:1020D000FE488089102872DDFC488089B0F5987F21
:1020E0006DDAFA48C08A3028F5DDF848C08A7828C9
:1020F000F6DAF6488089A02811DDF4488089E828BE
:102100000DDAF248C08A302809DDF048C08A782804
:1021100005DAB7EE000AEE4880ED000A41E0EB4830
:102120008089582811DDE9488089A0280DDAE74820
:10213000C08A302809DDE548C08A782805DABFEE74
:10214000000AE34880ED000A2BE0E0488089E82897
:1021500012DDDE488089B0F5987F0DDADB48C08A51
:10216000302809DDD948C08A782805DAB2EE040A99
:10217000D74880ED000A14E0D4488089102810DD8B
:10218000D248808958280CDAD048C08A302808DD27
:10219000CE48C08A782804DABAEE040ACC4880ED2A
:1021A000000ACC48007808B9012000E00020CA49A4
:1021B00009784843C749097811B1012201E0F4E0E8
:1021C0000022C4490978891C02FB0100052825D298
:1021D000DFE800F003255B7DB300C04890ED000A06
:1021E000BB48D0ED000A30EE200ABC4880ED000A62
:1021F000006808F0BEFD41EC180B53EC182BAFF251
:102200008811B74808F0ACFFB54818210B463022BA
:10221000CDE90010A821A020FFF735FAC4E0AC48B2
:10222000006808F0A6FD41EC1B0B9FEDAE0B53ECD4
:10223000102B08F086FC41EC190BAC48006808F044
:1022400098FD41EC1A0B53EC192B08F0D3FB41EC31
:10225000180B08F0D1FDA54908600846006808F091
:1022600088FD41EC180B53EC182BAFF2D0119C48B1
:1022700008F076FF9A4818210B466022CDE900103D
:10228000C021A020FFF7FFF98EE0994890ED000AE9
:102290008F48D0ED000A30EE200A954880ED000A04
:1022A000006808F066FD41EC180B53EC182BAFF2F8
:1022B00038218B4808F054FF894818210B463022FA
:1022C000CDE90010D821A020FFF7DDF96CE08048AF
:1022D000006808F04EFD41EC1B0B9FED860B53ECA4
:1022E000102B08F02EFC41EC190B8448006808F014
:1022F00040FD41EC1A0B53EC192B08F07BFB41EC31
:10230000180B08F079FD7D4908600846006808F060
:1023100030FD41EC180B53EC182BAFF280217048C4
:1023200008F01EFF6E4818210B463C22CDE9001034
:10233000F021A020FFF7A7F936E06548006808F013
:1023400018FD41EC1B0B9FED6B0B53EC102B08F0B1
:10235000F8FB41EC190B6A48006808F00AFD41ECF3
:102360001A0B53EC192B08F045FB41EC180B08F045
:1023700043FD634908600846006808F0FAFC41EC38
:10238000180B53EC182BAFF2EC21554808F0E8FE7F
:10239000534818210B463C22CDE900104FF48471BC
:1023A000A020FFF770F900BFE2E04848808970285C
:1023B00037DD46488089D02833DA4448C08AB0F5F2
:1023C000CC7F2EDD4148C08AB0F5E47F29DA0020B9
:1023D0004C4908604C4908604C4908604FF478400B
:1023E0004FF4E373CE224FF4DF7100907220FFF7B9
:1023F0005BFD4FF6FF704FF4E3734FF497724FF4A9
:10240000DF710090D220FFF74FFD4FF6FF704FF4C1
:10241000E3736E224FF4DF7100901220FFF744FD4A
:10242000A6E02A488089D02839DD28488089B0F57F
:10243000987F34DA2548C08AB0F5CC7F2FDD234859
:10244000C08AB0F5E47F2ADA01202E490860002016
:102450002D4908602D4908604FF6FF704FF4E37373
:10246000CE224FF4DF7100907220FFF71DFD4FF474
:10247000FC604FF4E3734FF497724FF4DF710090F8
:10248000D220FFF711FD4FF6FF704FF4E3736E2279
:102490004FF4DF7100901220FFF706FD68E00B4853
:1024A0008089102864DD09488089702860DA07482F
:1024B000C08AB0F5CC7F5BDD0448C08AB0F5E47F0C
:1024C00056DA01200F4908600F4921E084000020FE
:1024D0006400002063000020620000203C00002017
:1024E000AC080020FCA9F1D24D62503F4000002012
:1024F000440000207B14AE47E17A843F2C0000208A
:10250000300000205000002054000020580000201F
:102510000860FB4908604FF6FF704FF4E373CE226A
:102520004FF4DF7100907220FFF7BEFC4FF6FF7092
:102530004FF4E3734FF497724FF4DF710090D220A1
:10254000FFF7B2FC4FF4FC604FF4E3736E224FF4DC
:10255000DF7100901220FFF7A7FC09E0E94890F82E
:1025600020000121A140084010B90120E64908706F
:10257000E6480078012809D14FF6FF70FFF71EFAF0
:1025800004F0FFFE04F0C8FDFFF74AFA02B0BDEC0C
:10259000088B10BD08B5DE4800880090BDF800002B
:1025A00008BD10B504462046FEF721FF052005F0C2
:1025B000A5FCFFF7EFFF10BDD5490880704730B587
:1025C000014601F01F04C1F34513CA0AE50205EBF9
:1025D00043151544A8B230BD00BF0100A0F10102AF
:1025E000D0B2FAD170472DE9F04105460E460024DD
:1025F0000027A046C7480088A84203DDC548408898
:10260000B04202DC0020BDE8F08131462846FFF7E9
:1026100072F8C048808849F24131884211D0BD48E3
:10262000808846F6040188420BD0BA48808845F27B
:102630001031884205D0B748808841F6631188423E
:1026400003D12E20FEF7D3FE0DE0B248808845F27C
:102650001051884204D14FF43850FEF7C8FE02E012
:102660002220FEF7C4FEAB48808849F22031884220
:1026700002D10220FFF7B0FFFFF78CFF0446A54808
:10268000808841F66311884201D12046BBE70220D1
:10269000FFF7A2FFFFF77EFF04469E48808849F2BD
:1026A000413188420BD09B48808845F210318842E6
:1026B00005D09848808845F2105188420AD10220FE
:1026C000FFF78AFFFFF766FF8046E7B24FF6FF701D
:1026D00000EA07278F48808849F22531884216D0C2
:1026E0008C48808844F23551884210D089488088CF
:1026F000091F88420BD0874880884BF205518842D9
:1027000005D0844880884CF20551884201D120468A
:1027100079E78048808849F2413188420BD07D4872
:10272000808845F21031884205D07A48808845F289
:102730001051884207D1E012C002B91240EA41109C
:1027400040EAE8205FE72046FFF739FF5BE700B586
:102750007048808849F24131884211D06D488088A4
:1027600046F6040188420BD06A48808845F2103151
:10277000884205D06748808841F66311884203D1BA
:102780002920FEF734FE0FE06248808845F21051A0
:10279000884204D14FF42450FEF729FE04E040F2B1
:1027A00073110720FEF712FE00BD00B5594880885E
:1027B00049F24131884211D05648808846F60401DA
:1027C00088420BD05348808845F21031884205D0AA
:1027D0005048808841F66311884203D12820FEF7D3
:1027E00006FE0EE04B48808845F21051884204D125
:1027F0004FF42050FEF7FBFD03E000210720FEF719
:10280000E5FD00BDF0B5054600240027414880796C
:1028100001280BD13F48808846F60401884205D044
:102820003C48808841F66311884208D13948807954
:10283000F0B93848808841F66311884218D1082DD4
:1028400015D2DFE805F00406080A0C0E1012062562
:102850000DE007250BE0042509E0052507E001252B
:1028600005E0002503E0032501E0022500BF00BFCD
:102870002848808849F24131884217D0254880880D
:1028800046F60401884211D02248808845F2103172
:1028900088420BD01F48808845F21051884205D0ED
:1028A0001C48808841F6631188427DD1082D1CD2D6
:1028B000DFE805F00406090C0F12151800BF14E03C
:1028C00044F0800411E044F040040EE044F0C00401
:1028D0000BE044F0200408E044F0600405E044F01C
:1028E000A00402E044F0E00400BF00BF0948808873
:1028F00045F2105188420FD14FF458570DE00000B7
:1029000058000020840000206100002060000020AA
:102910008000006CB60800203627FE48808845F20B
:10292000103188420DD0FB48808845F21051884212
:1029300007D0F848808841F66311884201D044F0FE
:102940000804F448808846F60401884201D144F026
:10295000020421463846FEF739FDEE48808841F6EC
:10296000631188421DD004F0200068B1E948008856
:10297000E8494988884214DAE64806884088E549EB
:102980000880084646800CE0E2480088E149498812
:10299000884206DDDF4806884088DE490880084610
:1029A0004680DC48808800E085E045F2105188428E
:1029B00052D1D8494889FEF71AFD0020FEF70DFDD7
:1029C000D4494989491C88B2FEF711FD0020FEF761
:1029D00004FDD0494989891C88B2FEF708FDCD491C
:1029E0000988491EC1F30F20FEF7F7FCC949498940
:1029F000C91C88B2FEF7FBFCC6490978491EC8B25B
:102A0000FEF7EBFCC3498889FEF7F1FC0020FEF7D6
:102A1000E4FCC0498989491C88B2FEF7E8FC002023
:102A2000FEF7DBFCBB498989891C88B2FEF7DFFC15
:102A3000B8494988491EC1F30F20FEF7CEFCB549BD
:102A40008989C91C88B2FEF7D2FCB2498978491E2F
:102A5000C8B2FEF7C2FC55E0AE494889FEF7C7FC94
:102A60000020FEF7BAFC0020FEF7B7FCA949098850
:102A7000491EC1F30F20FEF7B0FCA6490978491E94
:102A8000C8B2FEF7AAFCA3498889FEF7B0FC002073
:102A9000FEF7A3FC0020FEF7A0FC9E494988491ED2
:102AA000C1F30F20FEF799FC9A498978491EC8B2F4
:102AB000FEF793FC26E0082D1CD2DFE805F00407A2
:102AC0000A0D0F12151844F0300413E044F01004FE
:102AD00010E044F020040DE000BF0BE044F03804A7
:102AE00008E044F0280405E044F0180402E044F053
:102AF000080400BF00BF032744F480542146384631
:102B0000FEF764FCF0BD70B52DED048B0446BE20CD
:102B1000FEF76DFC0520FEF760FC204608F003F987
:102B200041EC190B9FED7C0B53EC102B08F009F8CE
:102B300041EC180B08F004F985B22846FEF74DFC6D
:102B40000120FEF74AFCFF20FEF747FC0020FEF7BD
:102B500044FC0020FEF741FCBDEC048B70BD10B5B9
:102B60000446002C66D16B498871F02008804FF430
:102B7000A07048800846808849F2413188420BD0D5
:102B80006448808846F60401884205D06148808800
:102B900045F2103188421AD12C205E4908812A2042
:102BA00048812B2088810846808846F604018842A7
:102BB00005D05848808845F21031884206D14FF43C
:102BC000A070544908804FF4F0704880A1E051484B
:102BD000808845F21051884210D14FF430504D4951
:102BE00008814FF4285048814FF42C5088814FF4CD
:102BF000F07008804FF4487048808AE0454880882B
:102C000041F6631188420DD12C20424908812B20C6
:102C100048812A2088814FF4F07008804FF4487072
:102C2000488076E022203B490881202048812120ED
:102C300088816EE00120374988714FF4A0700880C8
:102C4000F02048800846808849F24131884205D00A
:102C50003048808845F21031884207D12C202D4918
:102C600008812A2048812B2088813FE029488088DC
:102C700046F60401884207D12C20264908812B20E2
:102C800048812A20888131E02248808845F210510D
:102C9000884210D14FF430501E4908814FF428501B
:102CA00048814FF42C5088814FF4487008804FF4CD
:102CB000F07048801AE01748808841F66311884216
:102CC0000DD12C20134908812A2048812B2088818E
:102CD0004FF4487008804FF4F070488006E02220DE
:102CE0000C4908812120488120208881094880885A
:102CF00046F60401884205D00648808845F2103126
:102D0000884206D14FF4F070024908804FF4A07059
:102D1000488005E0B6080020666666666666044080
:102D20000020FFF76FFD10BD2DE9F04F86B004467F
:102D30000D469046994604EB0800401E86B205EB0E
:102D40000900401E87B2FE48808849F2413188421E
:102D500015D0FB48808845F2103188420FD0F848E2
:102D6000808846F60401884209D0F5488079012818
:102D700026D1F348808841F66311884220D1F0497A
:102D80004889FEF734FB2012FEF727FBE0B2FEF77E
:102D900024FB3012FEF721FBF0B2FEF71EFBE849E0
:102DA0008889FEF724FB2812FEF717FBE8B2FEF72E
:102DB00014FB3812FEF711FBF8B2FEF70EFBB8E079
:102DC000DF48808841F66311884234D1DC480088AE
:102DD000A0EB0800001B84B205EB0900401E1FFA9F
:102DE00080F9D7494889FEF702FB2012FEF7F5FA71
:102DF000E0B2FEF7F2FA04EB0801491EC1F30F201E
:102E0000FEF7EBFA04EB0801491EC8B2FEF7E5FA3B
:102E1000CB498889FEF7EBFA2812FEF7DEFAE8B212
:102E2000FEF7DBFA4FEA2920FEF7D7FA09F0FF0098
:102E3000FEF7D3FA7DE0C248808845F210518842FF
:102E400044D1BF494889FEF7D2FA2012FEF7C5FAED
:102E5000BB494989491C88B2FEF7C9FAE0B2FEF7BE
:102E6000BCFAB7494989891C88B2FEF7C0FA30120A
:102E7000FEF7B3FAB2494989C91C88B2FEF7B7FA1E
:102E8000F0B2FEF7AAFAAE498889FEF7B0FA281226
:102E9000FEF7A3FAAA498989491C88B2FEF7A7FA66
:102EA000E8B2FEF79AFAA6498989891C88B2FEF72A
:102EB0009EFA3812FEF791FAA1498989C91C88B295
:102EC000FEF795FAF8B2FEF788FA32E09C4880796E
:102ED00001280ED1AA46BB4699480088801B401E97
:102EE00080B2019096480088001B401E80B200907E
:102EF00003E0A246B346019500975020059051206B
:102F00000490522003905320029051460598FEF7FA
:102F10005DFA59460498FEF759FA01990398FEF7AD
:102F200055FA00990298FEF751FA29462046FEF715
:102F3000E2FB06B0BDE8F08F00B5A1B00020209004
:102F400001217A2006F00AFD0121084606F03EFD27
:102F50004FF400401E9001208DF87C0000208DF879
:102F60007E0002208DF87D0001208DF87F001EA9D3
:102F7000744805F0D9F94CF233701E9002208DF898
:102F80007C0000208DF87E0003208DF87D0001205C
:102F90008DF87F001EA96C4805F0C6F94FF68070C9
:102FA0001E9002208DF87C0000208DF87E0003200A
:102FB0008DF87D0001208DF87F001EA9634805F083
:102FC000B3F94FF480501E9002208DF87C00002051
:102FD0008DF87E0003208DF87D0001208DF87F00A4
:102FE0001EA95B4805F0A0F94FF480501E90022006
:102FF0008DF87C0000208DF87E0003208DF87D0088
:1030000001208DF87F001EA9524805F08DF90C2291
:1030100000214D4805F013FA0C2201214A4805F021
:103020000EFA0C220421484805F009FA0C22052169
:10303000454805F004FA0C220821434805F0FFF941
:103040000C220921404805F0FAF90C220A213E48D9
:1030500005F0F5F90C220E213B4805F0F0F90C22A1
:103060000F21394805F0EBF90C220721374805F00C
:10307000E6F90C220821354805F0E1F90C22092176
:10308000324805F0DCF90C220A21304805F0D7F966
:103090000C220B212D4805F0D2F90C2211462B48A9
:1030A00005F0CDF90C220D21284805F0C8F90C22B5
:1030B0000E21264805F0C3F90C220F21234805F004
:1030C000BEF90C221146224805F0B9F90C2211462E
:1030D000204805F0B4F90F200890002009903C200A
:1030E0000A9000200B900C900D900E9009200190FA
:1030F0000020029008200390002004900590069084
:10310000079006200F900020109011901020129030
:103110000020139015901490169017904FF4805043
:103120001890002019904FF480401A9000201B90B6
:1031300008A81C9001A81D900FA807F084F90BE0C7
:10314000B608002000040240000C024000100240BB
:1031500000140240001802400121062007F0FEF989
:10316000322004F013FF01210020FEF72FF9322056
:1031700004F00CFF0020FFF714FAFE49888008468F
:103180008088FF280ADB084680884FF6FF71884256
:1031900004D0F8488088B0F5134F7CD1D320FEF7D7
:1031A00026F9FFF7F7F9F3498880FFF7F3F9F149BA
:1031B0008880FFF7EFF9EF498880084680884FF64E
:1031C000FF7101EA0020EB498880FFF7E3F9E94944
:1031D00089880843E74988800846808849F2413158
:1031E000884258D0BF20FEF702F9FFF7D3F9E14932
:1031F0008880FFF7CFF9DF498880FFF7CBF9DD49F9
:103200008880FFF7C7F9DB498880084680884FF639
:10321000FF7101EA0020D7498880FFF7BBF9D54943
:1032200089880843D34988800846808846F6040187
:1032300088427AD0D420FEF7DAF8FFF7ABF9CD490F
:103240008880FFF7A7F9CB498880FFF7A3F9C94920
:103250008880084680884FF6FF7101EA0020C54942
:103260008880FFF797F9C34989880843C149888056
:103270000846808845F21031884256D04FF45A40B3
:10328000FEF7B5F8FFF786F9BA4988804FF45B403E
:10329000FEF7ADF800E048E0FFF77CF9B54988801B
:1032A000084680884FF6FF7101EA0020B149888006
:1032B0004FF45C40FEF79BF8FFF76CF9AD49898845
:1032C0000843AC49888008468088B0F5004F02D199
:1032D00045F210508880A748808845F210518842F6
:1032E00023D0A120FEF783F8FFF754F9A149888085
:1032F000FFF750F99F498880084680884FF6FF7194
:1033000001EA00209B498880FFF744F999498988A0
:103310000843984988800846808845F26171884250
:1033200003D141F66310934988809248808849F21E
:103330004131884211D08F48808845F2103188424F
:103340000BD08C48808845F21051884205D08948BE
:10335000808841F6631188421DD18748006820F0BB
:103360000F004FF02041C1F81C010846D0F81C01A5
:1033700020F47060C1F81C010846D0F81C0140F030
:103380000300C1F81C010846D0F81C0140F400708D
:10339000C1F81C0128E07748808846F6040188427D
:1033A00005D0744880884CF2055188421CD172487F
:1033B000006820F00F004FF02041C1F81C010846C2
:1033C000D0F81C0120F47060C1F81C010846D0F848
:1033D0001C0140F00A00C1F81C010846D0F81C018D
:1033E00040F44060C1F81C016248818863A007F086
:1033F000A7FE6048808849F2413188427ED1CF20C3
:10340000FDF7F5FF0020FDF7E8FFC120FDF7E5FF20
:103410003020FDF7E2FFED20FDF7E9FF6420FDF726
:10342000DCFF0320FDF7D9FF1220FDF7D6FF812036
:10343000FDF7D3FFE820FDF7DAFF8520FDF7CDFF8C
:103440001020FDF7CAFF7A20FDF7C7FFCB20FDF75C
:10345000CEFF3920FDF7C1FF2C20FDF7BEFF002075
:10346000FDF7BBFF3420FDF7B8FF0220FDF7B5FFE5
:10347000F720FDF7BCFF2020FDF7AFFFEA20FDF7A6
:10348000B6FF0020FDF7A9FF0020FDF7A6FFC02032
:10349000FDF7ADFF1B20FDF7A0FFC120FDF7A7FF43
:1034A0000120FDF79AFFC520FDF7A1FF3020FDF7B1
:1034B00094FF3020FDF791FFC720FDF798FFB7205C
:1034C000FDF78BFF3620FDF792FF4820FDF785FFC3
:1034D0003A20FDF78CFF5520FDF77FFFB120FDF767
:1034E00086FF0020FDF779FF1A20FDF776FFB62052
:1034F000FDF77DFF0A20FDF770FF00E0A4E0A220A9
:10350000FDF76BFFF220FDF772FF0020FDF765FF6E
:103510002620FDF76CFF0120FDF75FFFE020FDF79F
:1035200066FF0F20FDF759FF2A20FDF756FF2820E0
:10353000FDF753FF0820FDF750FF0E20FDF74DFF6C
:103540000820FDF74AFF5420FDF747FFA920FDF7AB
:1035500044FF4320FDF741FF0A20FDF73EFF0F2007
:10356000FDF73BFF0020FDF738FF0020FDF735FF9A
:1035700000200BE0B60800201C0100A0204C4344B2
:103580002049443A25780D0A00000000FDF725FF88
:103590000020FDF722FFE120FDF729FF0020FDF7C5
:1035A0001CFF1520FDF719FF1720FDF716FF072058
:1035B000FDF713FF1120FDF710FF0620FDF70DFFAB
:1035C0002B20FDF70AFF5620FDF707FF3C20FDF7F3
:1035D00004FF0520FDF701FF1020FDF7FEFE0F2080
:1035E000FDF7FBFE3F20FDF7F8FE3F20FDF7F5FE5F
:1035F0000F20FDF7F2FE2B20FDF7F9FE0020FDF76E
:10360000ECFE0020FDF7E9FE0120FDF7E6FE3F207D
:10361000FDF7E3FE2A20FDF7EAFE0020FDF7DDFEC0
:103620000020FDF7DAFE0020FDF7D7FEEF20FDF7C2
:10363000D4FE1120FDF7DBFE782004F0A7FC292042
:10364000FDF7D5FE03F01DB9FE48808846F604015B
:1036500088427CD11120FDF7CAFE142004F096FCAC
:10366000D020FDF7C4FE0720FDF7B7FE4220FDF78E
:10367000B4FE1D20FDF7B1FED120FDF7B8FE0020FD
:10368000FDF7ABFE1A20FDF7A8FE0920FDF7A5FE09
:10369000D220FDF7ACFE0120FDF79FFE2220FDF7B2
:1036A0009CFEC020FDF7A3FE1020FDF796FE3B20F8
:1036B000FDF793FE0020FDF790FE0220FDF78DFE42
:1036C0001120FDF78AFEC520FDF791FE0320FDF7CE
:1036D00084FEC820FDF78BFE0020FDF77EFE25202E
:1036E000FDF77BFE2120FDF778FE0520FDF775FE36
:1036F0000020FDF772FE0A20FDF76FFE6520FDF742
:103700006CFE2520FDF769FE7720FDF766FE502050
:10371000FDF763FE0F20FDF760FE0020FDF75DFE64
:10372000F820FDF764FE0120FDF757FEFE20FDF7AF
:103730005EFE0020FDF751FE0220FDF74EFE202028
:10374000FDF755FE3620FDF752FE082000E02CE084
:10375000FDF743FE3A20FDF74AFE5520FDF73DFEFA
:103760002B20FDF744FE0020FDF737FE0020FDF77B
:1037700034FE0120FDF731FE3F20FDF72EFE2A200A
:10378000FDF735FE0020FDF728FE0020FDF725FEA1
:103790000120FDF722FEDF20FDF71FFE782004F058
:1037A000F5FB2920FDF723FE4CE7A648808845F26B
:1037B0001031884240F07C87ED20FDF718FE012093
:1037C000FDF70BFEFE20FDF708FEEE20FDF70FFED5
:1037D000DE20FDF702FE2120FDF7FFFDF120FDF7C1
:1037E00006FE0120FDF7F9FDDF20FDF700FE1020A9
:1037F000FDF7F3FDC420FDF7FAFD8F20FDF7EDFD89
:10380000C620FDF7F4FD0020FDF7E7FDE220FDF7FF
:10381000E4FDE220FDF7E1FDE220FDF7DEFDBF2043
:10382000FDF7E5FDAA20FDF7D8FDB020FDF7DFFD8F
:103830000D20FDF7D2FD0020FDF7CFFD0D20FDF797
:10384000CCFD0020FDF7C9FD1120FDF7C6FD0020CD
:10385000FDF7C3FD1920FDF7C0FD0020FDF7BDFDFC
:103860002120FDF7BAFD0020FDF7B7FD2D20FDF763
:10387000B4FD0020FDF7B1FD3D20FDF7AEFD0020B9
:10388000FDF7ABFD5D20FDF7A8FD0020FDF7A5FDD0
:103890005D20FDF7A2FD0020FDF79FFDB120FDF7A3
:1038A000A6FD8020FDF799FD0020FDF796FD8B20F9
:1038B000FDF793FD0020FDF790FD9620FDF78DFDAF
:1038C0000020FDF78AFDB220FDF791FD0020FDF7F5
:1038D00084FD0020FDF781FD0220FDF77EFD002024
:1038E000FDF77BFD0320FDF778FD0020FDF775FD5A
:1038F000B320FDF77CFD0020FDF76FFD0020FDF7F4
:103900006CFD0020FDF769FD0020FDF766FD00203D
:10391000FDF763FD0020FDF760FD0020FDF75DFD74
:103920000020FDF75AFD0020FDF757FD0020FDF7B0
:1039300054FD0020FDF751FD0020FDF74EFD002055
:10394000FDF74BFD0020FDF748FD0020FDF745FD8C
:103950000020FDF742FD0020FDF73FFD0020FDF7B0
:103960003CFD0020FDF739FD0020FDF736FD00206D
:10397000FDF733FD0020FDF730FD0020FDF72DFDA4
:103980000020FDF72AFDB420FDF731FD8B20FDF767
:1039900024FD0020FDF721FD9620FDF71EFD0020EF
:1039A000FDF71BFDA120FDF718FD0020FDF715FD1B
:1039B000B520FDF71CFD0220FDF70FFD0020FDF7EF
:1039C0000CFD0320FDF709FD0020FDF706FD042096
:1039D000FDF703FD0020FDF700FDB620FDF707FD14
:1039E0000020FDF7FAFC0020FDF7F7FCB720FDF7FB
:1039F000FEFC0020FDF7F1FC0020FDF7EEFC3F206F
:103A0000FDF7EBFC0020FDF7E8FC5E20FDF7E5FC90
:103A10000020FDF7E2FC6420FDF7DFFC0020FDF74D
:103A2000DCFC8C20FDF7D9FC0020FDF7D6FCAC2097
:103A3000FDF7D3FC0020FDF7D0FCDC20FDF7CDFC2A
:103A4000002001E0B6080020FDF7C7FC7020FDF75C
:103A5000C4FC0020FDF7C1FC9020FDF7BEFC002057
:103A6000FDF7BBFCEB20FDF7B8FC0020FDF7B5FC33
:103A7000DC20FDF7B2FC0020FDF7AFFCB820FDF71D
:103A8000B6FC0020FDF7A9FC0020FDF7A6FC0020F5
:103A9000FDF7A3FC0020FDF7A0FC0020FDF79DFC36
:103AA0000020FDF79AFC0020FDF797FC0020FDF7B1
:103AB00094FCBA20FDF79BFC2420FDF78EFC00202F
:103AC000FDF78BFC0020FDF788FC0020FDF785FC4E
:103AD000C120FDF78CFC2020FDF77FFC0020FDF7C6
:103AE0007CFC5420FDF779FC0020FDF776FCFF20DC
:103AF000FDF773FC0020FDF770FCC220FDF777FC9A
:103B00000A20FDF76AFC0020FDF767FC0420FDF7A2
:103B100064FC0020FDF761FCC320FDF768FC3C203D
:103B2000FDF75BFC0020FDF758FC3A20FDF755FC43
:103B30000020FDF752FC3920FDF74FFC0020FDF777
:103B40004CFC3720FDF749FC0020FDF746FC3C20EB
:103B5000FDF743FC0020FDF740FC3620FDF73DFC5F
:103B60000020FDF73AFC3220FDF737FC0020FDF77E
:103B700034FC2F20FDF731FC0020FDF72EFC2C201B
:103B8000FDF72BFC0020FDF728FC2920FDF725FC84
:103B90000020FDF722FC2620FDF71FFC0020FDF78A
:103BA0001CFC2420FDF719FC0020FDF716FC242046
:103BB000FDF713FC0020FDF710FC2320FDF70DFCA2
:103BC0000020FDF70AFC3C20FDF707FC0020FDF774
:103BD00004FC3620FDF701FC0020FDF7FEFB32203F
:103BE000FDF7FBFB0020FDF7F8FB2F20FDF7F5FBB1
:103BF0000020FDF7F2FB2C20FDF7EFFB0020FDF786
:103C0000ECFB2920FDF7E9FB0020FDF7E6FB262071
:103C1000FDF7E3FB0020FDF7E0FB2420FDF7DDFBD3
:103C20000020FDF7DAFB2420FDF7D7FB0020FDF78D
:103C3000D4FB2320FDF7D1FB0020FDF7CEFBC420F1
:103C4000FDF7D5FB6220FDF7C8FB0020FDF7C5FBA3
:103C50000520FDF7C2FB0020FDF7BFFB8420FDF728
:103C6000BCFB0020FDF7B9FBF020FDF7B6FB002000
:103C7000FDF7B3FB1820FDF7B0FB0020FDF7ADFB0F
:103C8000A420FDF7AAFB0020FDF7A7FB1820FDF7F5
:103C9000A4FB0020FDF7A1FB5020FDF79EFB0020B8
:103CA000FDF79BFB0C20FDF798FB0020FDF795FB33
:103CB0001720FDF792FB0020FDF78FFB9520FDF705
:103CC0008CFB0020FDF789FBF320FDF786FB00202D
:103CD000FDF783FBE620FDF780FB0020FDF77DFB71
:103CE000C520FDF784FB3220FDF777FB0020FDF7B0
:103CF00074FB4420FDF771FB0020FDF76EFB65208F
:103D0000FDF76BFB0020FDF768FB7620FDF765FBF8
:103D10000020FDF762FB8820FDF75FFB0020FDF728
:103D20005CFBC620FDF763FB2020FDF756FB00205F
:103D3000FDF753FB1720FDF750FB0020FDF74DFB6F
:103D40000120FDF74AFB0020FDF747FBC720FDF7E8
:103D50004EFB0020FDF741FB0020FDF73EFB00205D
:103D6000FDF73BFB0020FDF738FBC820FDF73FFBCC
:103D70000020FDF732FB0020FDF72FFB0020FDF7B0
:103D80002CFB0020FDF729FBC920FDF730FB0020AC
:103D9000FDF723FB0020FDF720FB0020FDF71DFBB6
:103DA0000020FDF71AFB0020FDF717FB0020FDF7B0
:103DB00014FB0020FDF711FB0020FDF70EFB002097
:103DC000FDF70BFB0020FDF708FB0020FDF705FBCE
:103DD0000020FDF702FB0020FDF7FFFA0020FDF7B1
:103DE000FCFA0020FDF7F9FA0020FDF7F6FAE020D2
:103DF000FDF7FDFA1620FDF7F0FA0020FDF7EDFAC9
:103E00001C20FDF7EAFA0020FDF7E7FA2120FDF774
:103E1000E4FA0020FDF7E1FA3620FDF7DEFA002093
:103E2000FDF7DBFA4620FDF7D8FA0020FDF7D5FABA
:103E30005220FDF7D2FA0020FDF7CFFA6420FDF7FB
:103E4000CCFA0020FDF7C9FA7A20FDF7C6FA002067
:103E5000FDF7C3FA8B20FDF7C0FA0020FDF7BDFA8D
:103E60009920FDF7BAFA0020FDF7B7FAA820FDF770
:103E7000B4FA0020FDF7B1FAB920FDF7AEFA002040
:103E8000FDF7ABFAC420FDF7A8FA0020FDF7A5FA6C
:103E9000CA20FDF7A2FA0020FDF79FFAD220FDF715
:103EA0009CFA0020FDF799FAD920FDF796FA002038
:103EB000FDF793FAE020FDF790FA0020FDF78DFA68
:103EC000F320FDF78AFA0020FDF787FAE120FDF7DD
:103ED0008EFA1620FDF781FA0020FDF77EFA1C20ED
:103EE000FDF77BFA0020FDF778FA2220FDF775FA3E
:103EF0000020FDF772FA3620FDF76FFA0020FDF77B
:103F00006CFA4520FDF769FA0020FDF766FA5220A9
:103F1000FDF763FA0020FDF760FA6420FDF75DFA13
:103F20000020FDF75AFA7A20FDF757FA0020FDF736
:103F300054FA8B20FDF751FA0020FDF74EFA992034
:103F4000FDF74BFA0020FDF748FAA820FDF745FAE7
:103F50000020FDF742FAB920FDF73FFA0020FDF7F7
:103F60003CFAC420FDF739FA0020FDF736FACA20E2
:103F7000FDF733FA0020FDF730FAD220FDF72DFAD5
:103F80000020FDF72AFAD820FDF727FA0020FDF7D8
:103F900024FAE020FDF721FA0020FDF71EFAF320B5
:103FA000FDF71BFA0020FDF718FAE220FDF71FFAD3
:103FB0000520FDF712FA0020FDF70FFA0B20FDF7A0
:103FC0000CFA0020FDF709FA1B20FDF706FA002085
:103FD000FDF703FA3420FDF700FA0020FDF7FDF9A4
:103FE0004420FDF7FAF90020FDF7F7F94F20FDF71F
:103FF000F4F90020FDF7F1F96120FDF7EEF900205A
:10400000FDF7EBF97920FDF7E8F90020FDF7E5F978
:104010008820FDF7E2F90020FDF7DFF99720FDF792
:10402000DCF90020FDF7D9F9A620FDF7D6F900202C
:10403000FDF7D3F9B720FDF7D0F90020FDF7CDF952
:10404000C220FDF7CAF90020FDF7C7F9C720FDF728
:10405000C4F90020FDF7C1F9D120FDF7BEF9002019
:10406000FDF7BBF9D620FDF7B8F90020FDF7B5F94B
:10407000DD20FDF7B2F90020FDF7AFF9F320FDF7E1
:10408000ACF90020FDF7A9F9E320FDF7B0F9052010
:10409000FDF7A3F90020FDF7A0F90A20FDF79DF92F
:1040A0000020FDF79AF91C20FDF797F90020FDF795
:1040B00094F93320FDF791F90020FDF78EF94420A3
:1040C000FDF78BF90020FDF788F95020FDF785F901
:1040D0000020FDF782F96220FDF77FF90020FDF74F
:1040E0007CF97820FDF779F90020FDF776F9882032
:1040F000FDF773F90020FDF770F99720FDF76DF9D2
:104100000020FDF76AF9A620FDF767F90020FDF70A
:1041100064F9B720FDF761F90020FDF75EF9C220D0
:10412000FDF75BF90020FDF758F9C720FDF755F9B9
:104130000020FDF752F9D120FDF74FF90020FDF7DF
:104140004CF9D520FDF749F90020FDF746F9DD20AF
:10415000FDF743F90020FDF740F9F320FDF73DF9A5
:104160000020FDF73AF9E420FDF741F90120FDF7C1
:1041700034F90020FDF731F90120FDF72EF9002078
:10418000FDF72BF90220FDF728F90020FDF725F9AE
:104190002A20FDF722F90020FDF71FF93C20FDF74A
:1041A0001CF90020FDF719F94B20FDF716F9002046
:1041B000FDF713F95D20FDF710F90020FDF70DF96B
:1041C0007420FDF70AF90020FDF707F98420FDF7B8
:1041D00004F90020FDF701F99320FDF7FEF8002017
:1041E000FDF7FBF8A220FDF7F8F80020FDF7F5F841
:1041F000B320FDF7F2F80020FDF7EFF8BE20FDF741
:10420000ECF80020FDF7E9F8C420FDF7E6F80020FF
:10421000FDF7E3F8CD20FDF7E0F80020FDF7DDF82D
:10422000D320FDF7DAF80020FDF7D7F8DD20FDF701
:10423000D4F80020FDF7D1F8F320FDF7CEF80020E8
:10424000FDF7CBF8E520FDF7D2F80020FDF7C5F823
:104250000020FDF7C2F80020FDF7BFF80020FDF7B1
:10426000BCF80220FDF7B9F80020FDF7B6F82920C8
:10427000FDF7B3F80020FDF7B0F83C20FDF7ADF8EE
:104280000020FDF7AAF84B20FDF7A7F80020FDF766
:10429000A4F85D20FDF7A1F80020FDF79EF874203A
:1042A000FDF79BF80020FDF798F88420FDF795F8BE
:1042B0000020FDF792F89320FDF78FF80020FDF71E
:1042C0008CF8A220FDF789F80020FDF786F8B320CE
:1042D000FDF783F80020FDF780F8BE20FDF77DF89C
:1042E0000020FDF77AF8C420FDF777F80020FDF7ED
:1042F00074F8CD20FDF771F80020FDF76EF8D3209B
:10430000FDF76BF80020FDF768F8DC20FDF765F895
:104310000020FDF762F8F320FDF75FF80020FDF7BD
:104320005CF8E620FDF763F81120FDF756F8002051
:10433000FDF753F83420FDF750F80020FDF74DF855
:104340005620FDF74AF80020FDF747F87620FDF7E4
:1043500044F80020FDF741F87720FDF73EF80020F3
:10436000FDF73BF86620FDF738F80020FDF735F83B
:104370008820FDF732F80020FDF72FF89920FDF78F
:104380002CF80020FDF729F8BB20FDF726F80020C7
:10439000FDF723F89920FDF720F80020FDF71DF820
:1043A0006620FDF71AF80020FDF717F85520FDF7F5
:1043B00014F80020FDF711F85520FDF70EF8002045
:1043C000FDF70BF84520FDF708F80020FDF705F88C
:1043D0004320FDF702F80020FCF7FFFF4420FCF724
:1043E000FCFF0020FCF7F9FFE720FDF700F8322082
:1043F000FCF7F3FF0020FCF7F0FF5520FCF7EDFF82
:104400000020FCF7EAFF7620FCF7E7FF0020FCF72E
:10441000E4FF6620FCF7E1FF0020FCF7DEFF6720E9
:10442000FCF7DBFF0020FCF7D8FF6720FCF7D5FF87
:104430000020FCF7D2FF8720FCF7CFFF0020FCF71D
:10444000CCFF9920FCF7C9FF0020FCF7C6FFBB207A
:10445000FCF7C3FF0020FCF7C0FF9920FCF7BDFF6D
:104460000020FCF7BAFF7720FCF7B7FF0020FCF72D
:10447000B4FF4420FCF7B1FF0020FCF7AEFF56204C
:10448000FCF7ABFF0020FCF7A8FF2320FCF7A5FFFB
:104490000020FCF7A2FF3320FCF79FFF0020FCF771
:1044A0009CFF4520FCF799FF0020FCF796FFE820D1
:1044B000FCF79DFF0020FCF790FF0020FCF78DFF2C
:1044C0009920FCF78AFF0020FCF787FF8720FCF784
:1044D00084FF0020FCF781FF8820FCF77EFF00208E
:1044E000FCF77BFF7720FCF778FF0020FCF775FFD7
:1044F0006620FCF772FF0020FCF76FFF8820FCF7B6
:104500006CFF0020FCF769FFAA20FCF766FF002083
:10451000FCF763FFBB20FCF760FF0020FCF75DFFAA
:104520009920FCF75AFF0020FCF757FF6620FCF7A4
:1045300054FF0020FCF751FF5520FCF74EFF0020F0
:10454000FCF74BFF5520FCF748FF0020FCF745FF28
:104550004420FCF742FF0020FCF73FFF4420FCF71B
:104560003CFF0020FCF739FF5520FCF736FF002008
:10457000FCF733FFE920FCF73AFFAA20FCF72DFFF8
:104580000020FCF72AFF0020FCF727FF0020FCF7A3
:1045900024FF0020FCF72BFFAA20FCF71EFFCF20F2
:1045A000FCF725FF0020FCF718FF0020FCF715FFA3
:1045B0000020FCF712FF0020FCF70FFF0020FCF7A3
:1045C0000CFF0020FCF709FF0020FCF706FF00208D
:1045D000FCF703FF0020FCF700FF0020FCF7FDFEC6
:1045E0000020FCF7FAFE0020FCF7F7FE0020FCF7A5
:1045F000F4FE0020FCF7F1FE0020FCF7EEFE0020A8
:10460000FCF7EBFE0020FCF7E8FEF020FCF7EFFEE5
:104610000020FCF7E2FE5020FCF7DFFE0020FCF754
:10462000DCFE0020FCF7D9FE0020FCF7D6FEF320CC
:10463000FCF7DDFE0020FCF7D0FEF920FCF7D7FEEA
:104640000620FCF7CAFE1020FCF7C7FE2920FCF765
:10465000C4FE0020FCF7C1FE3A20FCF7C8FE55203E
:10466000FCF7BBFE1120FCF7C2FE642003F08EFCB9
:104670002920FCF7BCFE3520FCF7B9FE0020FCF732
:10468000ACFE5120FCF7B3FEFF20FCF7A6FE532042
:10469000FCF7ADFE2C20FCF7A0FE5520FCF7A7FE92
:1046A0008220FCF79AFE2C20FCF7A1FE02F0E9B86C
:1046B000FE48808845F2105188427DD155214FF443
:1046C0007040FCF783FEAA214FF20100FCF77EFE4A
:1046D00052214FF20200FCF779FE08214FF203004D
:1046E000FCF774FE01214FF20400FCF76FFE0D2170
:1046F0004FF43040FCF76AFE0D214BF20100FCF74D
:1047000065FE0D214BF20200FCF760FE34214FF4F0
:104710003640FCF75BFE34214BF20160FCF756FE9D
:1047200034214BF20260FCF751FE0D214FF4314071
:10473000FCF74CFE0D214BF20110FCF747FE0D215A
:104740004BF20210FCF742FE34214FF43740FCF7E5
:104750003DFE34214BF20170FCF738FE34214BF260
:104760000270FCF733FE00214FF43240FCF72EFEBE
:1047700000214BF20120FCF729FE00214BF2022020
:10478000FCF724FE24214FF43840FCF71FFE2421BF
:104790004BF60100FCF71AFE24214BF60200FCF751
:1047A00015FE01214FF43F40FCF710FE0F214FF49E
:1047B0003340FCF70BFE00E0FDE30F214BF201302C
:1047C000FCF704FE0F214BF20230FCF7FFFD342111
:1047D0004FF43940FCF7FAFD34214BF60110FCF799
:1047E000F5FD34214BF60210FCF7F0FD08214FF4E3
:1047F0003540FCF7EBFD08214BF20150FCF7E6FDDC
:1048000008214BF20250FCF7E1FD03214FF4424036
:10481000FCF7DCFD24214FF43A40FCF7D7FD2421BE
:104820004BF60120FCF7D2FD24214BF60220FCF7C9
:10483000CDFD00214FF43C40FCF7C8FD78214BF63C
:104840000140FCF7C3FD00214BF60240FCF7BEFD22
:1048500000214FF43D40FCF7B9FD78214BF60150A3
:10486000FCF7B4FD00214BF60250FCF7AFFD002130
:104870004FF43E40FCF7AAFD64214BF60160FCF7C3
:10488000A5FD00214FF45140FCF7A0FD33214DF26E
:104890000110FCF79BFD00214DF20210FCF796FD84
:1048A00034214DF20310FCF791FD00214DF204106C
:1048B000FCF78CFD3A214DF20510FCF787FD002135
:1048C0004DF20610FCF782FD4A214DF20710FCF76D
:1048D0007DFD00214DF20810FCF778FD5C214DF2C2
:1048E0000910FCF773FD00214DF20A10FCF76EFD74
:1048F00081214DF20B10FCF769FD00214DF20C10E7
:10490000FCF764FDA6214DF20D10FCF75FFD0021C0
:104910004DF20E10FCF75AFDE5214DF20F10FCF799
:1049200055FD01214DF21010FCF750FD13214DF201
:104930001110FCF74BFD01214DF21210FCF746FD62
:1049400054214DF21310FCF741FD01214DF21410DA
:10495000FCF73CFD82214DF21510FCF737FD0121DB
:104960004DF21610FCF732FDCA214DF21710FCF77C
:104970002DFD02214DF21810FCF728FD00214DF20B
:104980001910FCF723FD02214DF21A10FCF71EFD51
:1049900001214DF21B10FCF719FD02214DF21C10F4
:1049A000FCF714FD34214DF21D10FCF70FFD022120
:1049B0004DF21E10FCF70AFD67214DF21F10FCF7A7
:1049C00005FD02214DF22010FCF700FD84214DF27F
:1049D0002110FCF7FBFC02214DF22210FCF7F6FC43
:1049E000A4214DF22310FCF7F1FC02214DF224101A
:1049F000FCF7ECFCB7214DF22510FCF7E7FC022197
:104A00004DF22610FCF7E2FCCF214DF22710FCF707
:104A1000DDFC02214DF22810FCF7D8FCDE214DF21E
:104A20002910FCF7D3FC02214DF22A10FCF7CEFC32
:104A3000F2214DF22B10FCF7C9FC02214DF22C1093
:104A4000FCF7C4FCFE214DF22D10FCF7BFFC032146
:104A50004DF22E10FCF7BAFC10214DF22F10FCF78E
:104A6000B5FC03214DF23010FCF7B0FC33214DF2C0
:104A70003110FCF7ABFC03214DF23210FCF7A6FC21
:104A80006D214DF23310FCF7A1FC00214FF4524090
:104A9000FCF79CFC33214DF20120FCF797FC002130
:104AA0004DF20220FCF792FC342101E0B608002010
:104AB0004DF20320FCF78AFC00214DF20420FCF7A4
:104AC00085FC3A214DF20520FCF780FC00214DF2D7
:104AD0000620FCF77BFC4A214DF20720FCF776FC10
:104AE00000214DF20820FCF771FC5C214DF20920F9
:104AF000FCF76CFC00214DF20A20FCF767FC8121D9
:104B00004DF20B20FCF762FC00214DF20C20FCF76B
:104B10005DFCA6214DF20D20FCF758FC00214DF262
:104B20000E20FCF753FCE5214DF20F20FCF74EFC64
:104B300001214DF21020FCF749FC13214DF2112008
:104B4000FCF744FC01214DF21220FCF73FFC5421FC
:104B50004DF21320FCF73AFC01214DF21420FCF732
:104B600035FC82214DF21520FCF730FC01214DF27D
:104B70001620FCF72BFCCA214DF21720FCF726FC6F
:104B800002214DF21820FCF721FC00214DF21920E2
:104B9000FCF71CFC02214DF21A20FCF717FC012146
:104BA0004DF21B20FCF712FC02214DF21C20FCF7F9
:104BB0000DFC34214DF21D20FCF708FC02214DF2C2
:104BC0001E20FCF703FC67214DF21F20FCF7FEFBC3
:104BD00002214DF22020FCF7F9FB84214DF2212027
:104BE000FCF7F4FB02214DF22220FCF7EFFBA4219D
:104BF0004DF22320FCF7EAFB02214DF22420FCF7C2
:104C0000E5FBB7214DF22520FCF7E0FB02214DF238
:104C10002620FCF7DBFBCF214DF22720FCF7D6FB4B
:104C200002214DF22820FCF7D1FBDE214DF2292094
:104C3000FCF7CCFB02214DF22A20FCF7C7FBF22146
:104C40004DF22B20FCF7C2FB02214DF22C20FCF789
:104C5000BDFBFE214DF22D20FCF7B8FB03214DF2E8
:104C60002E20FCF7B3FB10214DF22F20FCF7AEFBFA
:104C700003214DF23020FCF7A9FB33214DF2312006
:104C8000FCF7A4FB03214DF23220FCF79FFB6D21C2
:104C90004DF23320FCF79AFB00214FF45340FCF710
:104CA00095FB33214DF20130FCF790FB00214DF2D2
:104CB0000230FCF78BFB34214DF20330FCF786FB0E
:104CC00000214DF20430FCF781FB3A214DF2053012
:104CD000FCF77CFB00214DF20630FCF777FB4A2104
:104CE0004DF20730FCF772FB00214DF20830FCF763
:104CF0006DFB5C214DF20930FCF768FB00214DF2A1
:104D00000A30FCF763FB81214DF20B30FCF75EFBB0
:104D100000214DF20C30FCF759FBA6214DF20D306D
:104D2000FCF754FB00214DF20E30FCF74FFBE52160
:104D30004DF20F30FCF74AFB01214DF21030FCF729
:104D400045FB13214DF21130FCF740FB01214DF2E0
:104D50001230FCF73BFB54214DF21330FCF736FBCD
:104D600001214DF21430FCF731FB82214DF2153058
:104D7000FCF72CFB01214DF21630FCF727FBCA2172
:104D80004DF21730FCF722FB02214DF21830FCF7F0
:104D90001DFB00214DF21930FCF718FB02214DF2EA
:104DA0001A30FCF713FB01214DF21B30FCF70EFB10
:104DB00002214DF21C30FCF709FB34214DF21D306D
:104DC000FCF704FB02214DF21E30FCF7FFFA6721CD
:104DD0004DF21F30FCF7FAFA02214DF22030FCF7B9
:104DE000F5FA84214DF22130FCF7F0FA02214DF260
:104DF0002230FCF7EBFAA4214DF22330FCF7E6FA5F
:104E000002214DF22430FCF7E1FAB7214DF22530B2
:104E1000FCF7DCFA02214DF22630FCF7D7FACF215D
:104E20004DF22730FCF7D2FA02214DF22830FCF780
:104E3000CDFADE214DF22930FCF7C8FA02214DF2FD
:104E40002A30FCF7C3FAF2214DF22B30FCF7BEFA00
:104E500002214DF22C30FCF7B9FAFE214DF22D3033
:104E6000FCF7B4FA03214DF22E30FCF7AFFA102113
:104E70004DF22F30FCF7AAFA03214DF23030FCF747
:104E8000A5FA33214DF23130FCF7A0FA03214DF29F
:104E90003230FCF79BFA6D214DF23330FCF796FA75
:104EA00000214FF45440FCF791FA33214DF20140B8
:104EB000FCF78CFA00214DF20240FCF787FA34210E
:104EC0004DF20340FCF782FA00214DF20440FCF75A
:104ED0007DFA3A214DF20540FCF778FA00214DF2B7
:104EE0000640FCF773FA4A214DF20740FCF76EFAD0
:104EF00000214DF20840FCF769FA5C214DF20940AF
:104F0000FCF764FA00214DF20A40FCF75FFA8121B8
:104F10004DF20B40FCF75AFA00214DF20C40FCF721
:104F200055FAA6214DF20D40FCF750FA00214DF242
:104F30000E40FCF74BFAE5214DF20F40FCF746FA24
:104F400001214DF21040FCF741FA13214DF21140BE
:104F5000FCF73CFA01214DF21240FCF737FA5421DC
:104F60004DF21340FCF732FA01214DF21440FCF7E8
:104F70002DFA82214DF21540FCF728FA01214DF25D
:104F80001640FCF723FACA214DF21740FCF71EFA2F
:104F900002214DF21840FCF719FA00214DF2194098
:104FA000FCF714FA02214DF21A40FCF70FFA012126
:104FB0004DF21B4000E006E3FCF708FA02214DF237
:104FC0001C40FCF703FA34214DF21D40FCF7FEF9BA
:104FD00002214DF21E40FCF7F9F967214DF21F4006
:104FE000FCF7F4F902214DF22040FCF7EFF984219F
:104FF0004DF22140FCF7EAF902214DF22240FCF784
:10500000E5F9A4214DF22340FCF7E0F902214DF22D
:105010002440FCF7DBF9B7214DF22540FCF7D6F927
:1050200002214DF22640FCF7D1F9CF214DF2274065
:10503000FCF7CCF902214DF22840FCF7C7F9DE213C
:105040004DF22940FCF7C2F902214DF22A40FCF74B
:10505000BDF9F2214DF22B40FCF7B8F902214DF2D7
:105060002C40FCF7B3F9FE214DF22D40FCF7AEF9D0
:1050700003214DF22E40FCF7A9F910214DF22F40EB
:10508000FCF7A4F903214DF23040FCF79FF93321DE
:105090004DF23140FCF79AF903214DF23240FCF712
:1050A00095F96D214DF23340FCF790F900214FF452
:1050B0005540FCF78BF933214DF20150FCF786F98E
:1050C00000214DF20250FCF781F934214DF20350DA
:1050D000FCF77CF900214DF20450FCF777F93A21F6
:1050E0004DF20550FCF772F900214DF20650FCF725
:1050F0006DF94A214DF20750FCF768F900214DF295
:105100000850FCF763F95C214DF20950FCF75EF999
:1051100000214DF20A50FCF759F981214DF20B5054
:10512000FCF754F900214DF20C50FCF74FF9A62181
:105130004DF20D50FCF74AF900214DF20E50FCF7EC
:1051400045F9E5214DF20F50FCF740F901214DF2F0
:105150001050FCF73BF913214DF21150FCF736F9D2
:1051600001214DF21250FCF731F954214DF2135048
:10517000FCF72CF901214DF21450FCF727F982219C
:105180004DF21550FCF722F901214DF21650FCF7B3
:105190001DF9CA214DF21750FCF718F902214DF202
:1051A0001850FCF713F900214DF21950FCF70EF9D5
:1051B00002214DF21A50FCF709F901214DF21B5062
:1051C000FCF704F902214DF21C50FCF7FFF83421E2
:1051D0004DF21D50FCF7FAF802214DF21E50FCF77B
:1051E000F5F867214DF21F50FCF7F0F802214DF25F
:1051F0002050FCF7EBF884214DF22150FCF7E6F843
:1052000002214DF22250FCF7E1F8A4214DF2235087
:10521000FCF7DCF802214DF22450FCF7D7F8B72157
:105220004DF22550FCF7D2F802214DF22650FCF742
:10523000CDF8CF214DF22750FCF7C8F802214DF2EE
:105240002850FCF7C3F8DE214DF22950FCF7BEF8D8
:1052500002214DF22A50FCF7B9F8F2214DF22B5001
:10526000FCF7B4F802214DF22C50FCF7AFF8FE2108
:105270004DF22D50FCF7AAF803214DF22E50FCF709
:10528000A5F810214DF22F50FCF7A0F803214DF2A4
:105290003050FCF79BF833214DF23150FCF796F873
:1052A00003214DF23250FCF791F86D214DF233504D
:1052B000FCF78CF800214FF45640FCF787F83321B7
:1052C0004DF20160FCF782F800214DF20260FCF71C
:1052D0007DF834214DF20360FCF778F800214DF29F
:1052E0000460FCF773F83A214DF20560FCF76EF8A4
:1052F00000214DF20660FCF769F84A214DF2076083
:10530000FCF764F800214DF20860FCF75FF85C21BF
:105310004DF20960FCF75AF800214DF20A60FCF7E3
:1053200055F881214DF20B60FCF750F800214DF249
:105330000C60FCF74BF8A6214DF20D60FCF746F827
:1053400000214DF20E60FCF741F8E5214DF20F60AF
:10535000FCF73CF801214DF21060FCF737F81321FF
:105360004DF21160FCF732F801214DF21260FCF7AA
:105370002DF854214DF21360FCF728F801214DF26D
:105380001460FCF723F882214DF21560FCF71EF83B
:1053900001214DF21660FCF719F8CA214DF2176091
:1053A000FCF714F802214DF21860FCF70FF8002109
:1053B0004DF21960FCF70AF802214DF21A60FCF771
:1053C00005F801214DF21B60FCF700F802214DF2B7
:1053D0001C60FBF7FBFF34214DF21D60FBF7F6FF6D
:1053E00002214DF21E60FBF7F1FF67214DF21F60B5
:1053F000FBF7ECFF02214DF22060FBF7E7FF842171
:105400004DF22160FBF7E2FF02214DF22260FBF733
:10541000DDFFA4214DF22360FBF7D8FF02214DF2FE
:105420002460FBF7D3FFB7214DF22560FBF7CEFFD9
:1054300002214DF22660FBF7C9FFCF214DF2276014
:10544000FBF7C4FF02214DF22860FBF7BFFFDE210E
:105450004DF22960FBF7BAFF02214DF22A60FBF7FB
:10546000B5FFF2214DF22B60FBF7B0FF02214DF2A8
:105470002C60FBF7ABFFFE214DF22D60FBF7A6FF82
:1054800003214DF22E60FBF7A1FF10214DF22F609A
:10549000FBF79CFF03214DF23060FBF797FF3321B0
:1054A0004DF23160FBF792FF03214DF23260FBF7C2
:1054B0008DFF6D214DF23360FBF788FF55214FF4CE
:1054C0007040FBF783FFAA214FF20100FBF77EFF3C
:1054D00052214FF20200FBF779FF08214FF203003F
:1054E000FBF774FF00214FF20400FBF76FFFCC21A4
:1054F0004FF43140FBF76AFF00214BF20110FBF73C
:1055000065FF05214FF43640FBF760FF70214FF433
:105510003740FBF75BFF70214BF20170FBF756FF42
:1055200001214FF43840FBF751FF03214BF60100F6
:10553000FBF74CFF03214BF60200FBF747FF03216B
:105540004BF60300FBF742FF02214FF43C40FBF710
:105550003DFF00214BF60140FBF738FF00214BF6E1
:105560000240FBF733FFD0214FF44940FBF72EFFF9
:1055700002214CF60110FBF729FF50214CF60210D6
:10558000FBF724FF50214CF60310FBF71FFF5021BF
:105590004CF60410FBF71AFF00214FF45450FBF7B0
:1055A00015FF55214FF46850FBF710FF4FF488505A
:1055B000FBF71DFF782002F0A1FC4FF42450FBF70D
:1055C00016FF01F05EB9FE48808849F22531884215
:1055D0007ED147F6F001E520FBF7F8FE4FF480712D
:1055E0000120FBF7F3FE4FF4E0610220FBF7EEFE33
:1055F00041F230010320FBF7E9FE00210420FBF714
:10560000E5FE40F202210820FBF7E0FE0021092020
:10561000FBF7DCFE00210A20FBF7D8FE00210C205E
:10562000FBF7D4FE00210D20FBF7D0FE00210F2058
:10563000FBF7CCFE00211020FBF7C8FE072111204C
:10564000FBF7C4FE00211220FBF7C0FE002113204F
:10565000FBF7BCFE00210720FBF7B8FE41F290618A
:105660001020FBF7B3FE40F227211120FBF7AEFE1E
:105670009D211220FBF7AAFE4FF4C8511320FBF71F
:10568000A5FE25212920FBF7A1FE0D212B20FBF7EC
:105690009DFE07213020FBF799FE40F203313120B7
:1056A000FBF794FE03213220FBF790FE40F2062127
:1056B0003520FBF78BFE08213620FBF787FE40F2F2
:1056C00006413720FBF782FE4FF44171382000E09D
:1056D00057E0FBF77BFE07213920FBF777FE40F20E
:1056E00002613C20FBF772FE08213D20FBF76EFEB5
:1056F00000215020FBF76AFEEF215120FBF766FEE8
:1057000000215220FBF762FE40F23F115320FBF7CD
:105710005DFE4FF427416020FBF758FE0121612018
:10572000FBF754FE00216A20FBF750FE0021802089
:10573000FBF74CFE00218120FBF748FE0021822070
:10574000FBF744FE00218320FBF740FE002184206C
:10575000FBF73CFE00218520FBF738FE102190204E
:10576000FBF734FE4FF4C0619220FBF72FFE40F2AE
:1057700033110720FBF72AFE22210020FBF726FE2B
:105780001FE78F48808849F2283188427ED141F254
:105790008F01EC20FBF71AFE41F23421EF20FBF7DA
:1057A00015FE4FF480710120FBF710FE4FF4E0610D
:1057B0000220FBF70BFE41F230010320FBF706FE4F
:1057C00000210420FBF702FE40F202210820FBF733
:1057D000FDFD00210920FBF7F9FD00210A20FBF760
:1057E000F5FD01210C20FBF7F1FD00210D20FBF759
:1057F000EDFD00210F20FBF7E9FD00211020FBF754
:10580000E5FD07211120FBF7E1FD00211220FBF748
:10581000DDFD00211320FBF7D9FD01210720FBF757
:10582000D5FD322002F0B2FB41F290411020FBF78F
:10583000CDFD40F227211120FBF7C8FD322002F0F8
:10584000A5FB8A211220FBF7C1FD322002F09EFB4E
:105850004FF4D0511320FBF7B9FD06212920FBF7A7
:10586000B5FD0D212B20FBF7B1FD322002F08EFBA0
:1058700000212020FBF7AAFD00212120FBF7A6FD37
:10588000322002F083FB0021302000E074E0FBF7BF
:105890009DFD40F204613120FBF798FD40F2053197
:1058A0003220FBF793FD00213520FBF78FFD40F6FA
:1058B00009413620FBF78AFD4FF401713720FBF7D1
:1058C00085FD40F201313820FBF780FD40F2077181
:1058D0003920FBF77BFD00213C20FBF777FD40F6EC
:1058E0000A213D20FBF772FD322002F04FFB002120
:1058F0005020FBF76BFDEF215120FBF767FD0021E6
:105900005220FBF763FD40F23F115320FBF75EFD91
:105910004FF427416020FBF759FD01216120FBF77F
:1059200055FD00216A20FBF751FD00218020FBF787
:105930004DFD00218120FBF749FD00218220FBF76E
:1059400045FD00218320FBF741FD00218420FBF76A
:105950003DFD00218520FBF739FD10219020FBF74C
:1059600035FD4FF4C0619220FBF730FD40F233115A
:105970000720FBF72BFD24E61148808849F22031EF
:1059800088427DD100210846FBF720FD4FF480714D
:105990000120FBF71BFD4FF4E0610220FBF716FD31
:1059A00041F230010320FBF711FD00210420FBF739
:1059B0000DFD40F202210820FBF708FD002101E067
:1059C000B60800200920FBF701FD00210A20FBF7A3
:1059D000FDFC01210C20FBF7F9FC00210D20FBF759
:1059E000F5FC00210F20FBF7F1FC322002F0CEFA8B
:1059F00040F201110720FBF7E9FC322002F0C6FA61
:105A00004FF486511020FBF7E1FC07211120FBF732
:105A1000DDFC4FF488711220FBF7D8FC4FF43061A5
:105A20001320FBF7D3FC00212920FBF7CFFC44F225
:105A300010012B20FBF7CAFC00215020FBF7C6FC0D
:105A4000EF215120FBF7C2FC00215220FBF7BEFCE6
:105A500040F23F115320FBF7B9FC4FF41C5160207A
:105A6000FBF7B4FC01216120FBF7B0FC00216A20A8
:105A7000FBF7ACFC00218020FBF7A8FC002100E034
:105A800031E08120FBF7A2FC00218220FBF79EFC85
:105A900000218320FBF79AFC00218420FBF796FC71
:105AA00000218520FBF792FC10219020FBF78EFC53
:105AB00000219220FBF78AFC01219320FBF786FC52
:105AC0004FF488719520FBF781FC00219720FBF7AC
:105AD0007DFC00219820FBF779FC40F27311072030
