:020000040800F2
:1000000038050020210D0008390200083B020008D5
:100010003F020008430200084702000800000000F9
:100020000000000000000000000000004B0200087B
:100030004D020008000000004F02000851020008B5
:100040003B0D00083B0D00083B0D00083B0D000870
:100050003B0D00083B0D00083B0D00083B0D000860
:100060003B0D00083B0D00083B0D00083B0D000850
:100070003B0D00083B0D00083B0D00083B0D000840
:100080003B0D00083B0D00083B0D00083B0D000830
:100090003B0D00083B0D00083B0D00083B0D000820
:1000A0003B0D00083B0D00083B0D00083B0D000810
:1000B0003B0D00083B0D00083B0D00083B0D000800
:1000C0003B0D00083B0D00083B0D00083B0D0008F0
:1000D0003B0D0008950C00083B0D00083B0D000887
:1000E0003B0D00083B0D00083B0D00083B0D0008D0
:1000F0003B0D00083B0D00083B0D00083B0D0008C0
:100100003B0D00083B0D00083B0D00083B0D0008AF
:100110003B0D00083B0D0008230900083B0D0008BB
:100120003B0D00083B0D00083B0D00083B0D00088F
:100130003B0D00083B0D00083B0D00083B0D00087F
:100140003B0D00083B0D00083B0D00083B0D00086F
:100150003B0D00083B0D00083B0D00083B0D00085F
:100160003B0D00083B0D00083B0D00083B0D00084F
:100170003B0D00083B0D00083B0D00083B0D00083F
:100180003B0D00083B0D0008DFF80CD003F03CFAF3
:10019000004800479D010008380500202DED048B24
:1001A00082B04FF4A06000F0CDFD00F04EFCA8201E
:1001B00000F08EFC4FF4E13000F01AFD00F004FB7B
:1001C0005321632000F08DFBA72140F2F31000F0D3
:1001D000FBF94FF4FA71124801F033FC4FF4FA7155
:1001E0000F4801F030FC19E0642000F0D3FC0D480A
:1001F000006803F018F841EC180B0B4890ED000A6A
:1002000010EE101A084603F00EF841EC190B8DEDB4
:10021000008B53EC192B05A003F02AFAE4E7000049
:100220000004014028000020180000200D0A256667
:100230000909090925660000704700BFFEE700BFF5
:10024000FEE700BFFEE700BFFEE77047704770475C
:10025000704700000CB500200190009076480068BF
:1002600040F480307449086000BF7348006800F4AF
:10027000003000900198401C0190009818B9019836
:10028000B0F5A04FF1D16C48006800F4003010B117
:100290000120009001E0002000900098012846D144
:1002A00065484030006840F0805063494031086044
:1002B0006248006840F44040604908605E48083089
:1002C00000685D49083108600846006840F4004055
:1002D00008600846006840F4A05008605848091FAC
:1002E0000860081F006840F08070091F086000BFA8
:1002F0005148006800F000700028F9D040F2057005
:10030000504908604C480830006820F003004A4912
:10031000083108600846006840F00200086000BF2D
:1003200045480830006800F00C000828F8D10CBDE2
:1003300010B54548006840F47000434908603E48E5
:10034000006840F001003C49086000203A4908314B
:100350000860394800683D490840374908603C4812
:10036000091D0860081F006820F48020091F08602C
:10037000002031490C310860FFF76CFF4FF000603E
:1003800031498039086010BD70B500200022022379
:1003900000240221284D08352D6805F00C0020B1FD
:1003A000042806D0082834D107E02A4D2A4E3560AB
:1003B00033E02A4D284E35602FE01F4D2D1D2D684E
:1003C000C5F380541C4D2D1D2D6805F03F0154B11F
:1003D000224DB5FBF1F5184E361D3668C6F388166A
:1003E00005FB06F209E01B4DB5FBF1F5124E361D7B
:1003F0003668C6F3881605FB06F20F4D2D1D2D68D5
:10040000C5F301456D1C6B00B2FBF3F5124E356070
:1004100003E0104D104E356000BF00BF064D08359B
:100420002D68C5F303150E4E705D0B4D2D68C5404C
:10043000094E356070BD0000003802400070004079
:1004400008544007003C024088ED00E0FFFFF6FE44
:10045000103000240024F4000000002000127A0074
:100460000400002030B52DED048B8DB004460D4600
:100470000121022002F0D0F80B94A8B2ADF82800B8
:100480000020ADF83000ADF82A008DF832000AA93E
:10049000524801F0E8F86020ADF814000120ADF8F2
:1004A00016000420ADF81800204602F096FE41EC3C
:1004B000190B9FED4B0B53EC102B02F0ADFD41ECF3
:1004C000180B02F097FE07900020ADF82000ADF861
:1004D00022004FF48070ADF824000020ADF8260013
:1004E00005A93E4801F054F905A93C4801F089F9F5
:1004F00008213A4801F0D9FA0821384801F0DEFA1B
:100500004FF40060ADF804004010ADF80600801014
:10051000ADF808000F20ADF80A004FF48040ADF8A8
:10052000100001A92D4801F0FFFC012211462B48C3
:1005300001F03AFD0121294801F01EF90121274867
:1005400001F00BFD0DB0BDEC048B30BD1CB50121DD
:10055000072002F007F803220621234800F073FD6C
:1005600003220721214800F06EFD032207211E48C7
:1005700000F069FD03220E211D4800F064FD0020FB
:100580008DF806008DF8070003208DF80500402047
:10059000009002208DF804006946134800F0C8FC62
:1005A000802000906946114800F0C2FC8020009035
:1005B00069460D4800F0BCFC4FF48040009069464D
:1005C0000B4800F0B5FC1CBD70B504460D46FFF7A6
:1005D000BDFF29462046FFF745FF70BD00040140DE
:1005E000000000000000E03F000802400000024060
:1005F0000004024070B52DED088B00240025002674
:1006000000BF09E0734830F824000544714800EB4E
:10061000840040880644641C012CF3DB284602F069
:10062000DCFD41EC1B0B9FED6C0B53EC102B02F02F
:10063000F3FC41EC1A0B9FED6A0B53EC102B02F00C
:100640005DFD41EC190B9FED680B53EC102B02F094
:1006500055FD41EC180B02F0F9FD65490860304684
:1006600002F0BBFD41EC1A0B9FED5B0B53EC102B22
:1006700002F0D2FC41EC190B9FED590B53EC102BFF
:1006800002F03CFD41EC180B02F0E0FD58494860D7
:10069000BDEC088B70BD1CB50121022001F062FF8A
:1006A0000121022001F05EFF0120009003208DF85F
:1006B000040000208DF8070069464E4800F038FC21
:1006C0000220009003208DF8040000208DF8070020
:1006D0006946484800F02CFC1CBD00B599B00121CA
:1006E000880501F03FFF44480B903A480C900020E9
:1006F0000D9002200E9000200F904FF4806010901B
:10070000400011901290C0101390400214900020ED
:100710001590012016900020179018900A900AA9B1
:10072000364802F047FB0121344802F07DFB0121ED
:10073000080201F071FF0121480201F06DFF06205F
:1007400000904FF4803001908010029000200390C0
:10075000684602F095F804A802F088F8002004909A
:100760008DF8140001208DF81500002006900790E8
:10077000089001208DF8240004A9214802F051F8C6
:100780000023012208211E4802F0D1F804A91D48C7
:1007900002F047F80023012209211A4802F0C7F8A5
:1007A000012002F07AF90121154802F060F90121D7
:1007B000134802F07CF80121124802F078F8104842
:1007C00002F011F919B000BD10B5FFF764FFFFF793
:1007D00084FF10BD140000206666666666660A40E7
:1007E000000000000000B040000000000000F03FEA
:1007F0001800002000040240082301401064024059
:100800000020014000210140F0EE400A9948D0ED5F
:10081000001A71EEA01AC0ED001A9748D0ED001A28
:10082000944890ED002A61EE821A9FED942AF4EE2E
:10083000C21AF1EE10FA0ADD8F48D0ED001A9FEDD2
:100840008F2AC2EE212A8B48C0ED002A18E08A4880
:10085000D0ED001A874890ED002A61EE821A9FEDD4
:10086000882AF4EEC21AF1EE10FA09D28248D0EDCD
:10087000001A9FED832AC2EE212A7E48C0ED002A8D
:100880008048D0ED001A30EEE11A7F48D0ED001A12
:1008900061EEA01A784890ED002A7648D0ED002A43
:1008A00042EE221A794890ED002AB0EE610A02EE7B
:1008B000010ADFED771AB4EEE10AF1EE10FA04DD79
:1008C000DFED731AB0EE610A0AE0DFED721AB4EEE2
:1008D000E10AF1EE10FA03D2DFED6E1AB0EE610A12
:1008E00070473EB505460C460121102001F083FEFD
:1008F000681E0190601E80B2ADF800000020ADF8C7
:100900000800ADF802006946634800F0ACFE012122
:10091000614800F031FF012211465F4801F044FBBD
:100920003EBD10B52DED048BFFF764FE5B4890EDE6
:10093000000A5B4880ED000A584890ED010A5948CA
:1009400080ED000A584890ED000A5548D0ED000AA5
:1009500030EE600A554880ED000A554890ED000AD7
:100960005048D0ED000A30EE600A524880ED000A8F
:100970004E4890ED000AFFF747FF10EE104A204660
:1009800002F051FC41EC190B9FED4B0B53EC102B7B
:1009900002F042FB41EC180B02F058FC4849086099
:1009A000084690ED000AF7EE000A30EE200AF0EE5D
:1009B000000A80EE201A80ED001A3E4890ED000AF1
:1009C000FFF722FF10EE104A204602F02CFC41EC0B
:1009D000190B9FED390B53EC102B02F01DFB41EC72
:1009E000180B02F033FC37490860084690ED000A06
:1009F000F7EE000A30EE200AF0EE000A80EE201A30
:100A000080ED001A2E4890ED000ADFED2F0A20EE4F
:100A1000200ABCEEC00A10EE101A2C4801F011F8A2
:100A2000284890ED000ADFED280A20EE200ABCEEEF
:100A3000C00A10EE101A254801F005F801211648E9
:100A400001F0DAFABDEC048B10BD08B54FF48060FC
:100A500000F078F936208DF8000003208DF80100B1
:100A600001208DF802008DF80300684600F06FF950
:100A700008BD00004C000020440000200000484257
:100A8000000048C250000020400000204800002024
:100A90000000C8420000C8C200100040180000203A
:100AA000200000202400002030000020380000201A
:100AB000340000203C0000207B14AE47E17A843FE4
:100AC000280000202C0000200000FA430004014010
:100AD00010B504466FF0040000F086F9E11704EB4E
:100AE0005171C1F3C701394A11701046007800EB0B
:100AF0004001C1EBC0104FF6FF7101EAC00034495C
:100B0000088010BD0146314A12784A434FF0E02375
:100B10005A6100229A611A46126942F001021A6172
:100B200000BF4FF0E022106900F001021AB100F49A
:100B30008032002AF5D04FF0E022126922F0010243
:100B40004FF0E0231A6100229A6170470146204A63
:100B500012884A434FF0E0235A6100229A611A46F4
:100B6000126942F001021A6100BF4FF0E0221069E1
:100B700000F001021AB100F48032002AF5D04FF0E3
:100B8000E022126922F001024FF0E0231A610022F4
:100B90009A61704770B504464FF4077094FBF0F00B
:100BA000C6B24FF4077094FBF0F100FB114085B220
:100BB00005E04FF40770FFF7C9FF701EC6B2002EA4
:100BC000F7D115B12846FFF7C1FF70BD54000020D2
:100BD00056000020014600BF704700BF4C4A1288F3
:100BE00002F04002002AF9D0C2B2494B9A80704705
:100BF00010B588B004460121084601F0B3FC01217C
:100C0000102001F009FD07220921424800F01BFADB
:100C100007220A213F4800F016FA4FF4C060069000
:100C200002208DF81C008DF81D0000208DF81E009C
:100C300001208DF81F0006A9364800F079F90294CA
:100C40000020ADF80C00ADF80E00ADF81000ADF8C6
:100C500014000C20ADF8120002A92D4800F093FA00
:100C600001212B4800F017FB012240F225512848B2
:100C700000F0C7FB25208DF8040003208DF8050047
:100C80008DF8060001208DF8070001A800F05FF83C
:100C900008B010BD10B540F225511D4800F0ECFB26
:100CA00010B31B4800F026FBC4B21B48008800F4B8
:100CB0000040C8B91848008800F4804060B10A2C90
:100CC00003D000201449088020E01348008840F435
:100CD00000401149088019E00D2C06D10E4800880B
:100CE00040F480400C49088010E00B480088C0F3B5
:100CF0000D000A490C5408480088401C0649088029
:100D000008460088C72801DD0020088010BD0000CB
:100D100000100140000002405C0000207000002034
:100D20000648804706480047FEE7FEE7FEE7FEE785
:100D3000FEE7FEE7FEE7FEE7FEE7FEE73103000819
:100D40008901000832490143324A1160704770B589
:100D5000002100230F22C4781CB32E4C246804F415
:100D6000E064C4F5E064C4F30721C1F10404E3B214
:100D70000A4144789C40E1B28478144021430C0736
:100D8000210E254C05786155047804F01F050124D7
:100D9000AC4005786D11AD0005F1E025C5F80041C6
:100DA00009E0047804F01F050124AC401B4D0678CF
:100DB000761145F8264070BD194A0A400243154B8A
:100DC0001B1F1A60704739B1124A121D1268024384
:100DD000104B1B1D1A6006E00E4A121D126882435A
:100DE0000C4B1B1D1A607047042808D14FF0E021FE
:100DF000096941F004014FF0E022116107E04FF072
:100E0000E021096921F004014FF0E02211617047EF
:100E10000000FA050CED00E000E400E080E100E0F5
:100E200080FFFF1F10B504469848844208D1012175
:100E3000084601F002FC0021012001F0FEFB76E0F3
:100E40009348844208D10121022001F0F6FB0021E1
:100E5000022001F0F2FB6AE08E48844208D10121B1
:100E6000042001F0EAFB0021042001F0E6FB5EE033
:100E70008948844208D10121082001F0DEFB0021CD
:100E8000082001F0DAFB52E08448844208D10121B5
:100E9000102001F0D2FB0021102001F0CEFB46E033
:100EA0007F48844208D10121202001F0C6FB0021A7
:100EB000202001F0C2FB3AE07A48844208D10121A7
:100EC000402001F0BAFB0021402001F0B6FB2EE0EB
:100ED0007548844208D10121802001F0AEFB002139
:100EE000802001F0AAFB22E07048844208D1012151
:100EF000801501F0A2FB0021A01501F09EFB16E079
:100F00006B48844208D10121401501F096FB002175
:100F1000601501F092FB0AE06648844207D1012186
:100F2000001501F08AFB0021201501F086FB10BDA1
:100F3000F0B50A4600210023002400BF3DE0012552
:100F400005FA01F3156805EA03049C4234D10568EB
:100F50004F000326BE40B543056015794E00B540ED
:100F60000668354305601579012D02D01579022DEB
:100F700016D185684F000326BE40B543856055797C
:100F80004E00B540866835438560456801268E4031
:100F9000B5434560456896798E40B6B235434560A5
:100FA000C5684F000326BE40B543C560D5794E00E5
:100FB000B540C6683543C560491C1029BFD3F0BD94
:100FC0004FF6FF7101600021017141718171C171A2
:100FD000704708B54FF480320092009A0A4300929D
:100FE000009AC261C161009AC261C2690092C2697D
:100FF000009208BD0246002013690B400BB101208E
:1010000000E0002070470146086980B27047024640
:10101000002053690B400BB1012000E00020704715
:101020000146486980B27047018370474183704729
:101030000AB1018300E04183704741617047426912
:101040004A4042617047F0B5002300244D07ED0E81
:1010500002FA05F3CE1000F1200555F826504E0790
:10106000F70E0F26BE40B543CF1000F1200646F81C
:101070002750CE1000F1200555F8265045EA03040C
:10108000CE1000F1200545F82640F0BD00000240DA
:101090000004024000080240000C02400010024020
:1010A0000014024000180240001C024000200240D0
:1010B000002402400028024010B50446FA48844249
:1010C00008D10121102001F0FCFA0021102001F0CC
:1010D000F8FA57E0F548844209D10121480401F0AB
:1010E000DFFA00214FF4003001F0DAFA4AE0F0486C
:1010F000844209D10121880401F0D2FA00214FF481
:10110000802001F0CDFA3DE0EA48844209D1012176
:10111000C80401F0C5FA00214FF4002001F0C0FA24
:1011200030E0E548844209D10121080501F0B8FA10
:1011300000214FF4801001F0B3FA23E0DF4884422D
:1011400008D10121202001F0BCFA0021202001F06B
:10115000B8FA17E0DA48844209D10121880701F082
:101160009FFA00214FF0804001F09AFA0AE0D5483A
:10117000844207D10121400501F092FA0021600567
:1011800001F08EFA10BD2DE9FF4705460E460024FA
:10119000A14600BFA046B08900B100BF2C8A24F44C
:1011A0004054F08804432C82AC8941F20C608443A3
:1011B000B08831890843718908430443AC81AC8A03
:1011C00024F44074B0890443AC82684601F0F9F815
:1011D000B548854202D0B948854202D1DDF80C906D
:1011E00001E0DDF80890A88900F4004040B109EB67
:1011F000C90000EB091031684900B0FBF1F707E0C6
:1012000009EBC90000EB091031688900B0FBF1F768
:101210006420B7FBF0F004012009642101FB107881
:10122000A88900F4004040B1322000EBC800B0FBB8
:10123000F1F000F00700044308E0322000EB081052
:101240006421B0FBF1F000F00F0004432C81BDE8F5
:10125000FF874FF41651016000218180C180018118
:101260000C21418100218181704710B50246002088
:10127000108A20F470600B884C8823438C882343A9
:10128000CC8823431843108210BD00210180418087
:101290008180C180704721B1828942F400528281ED
:1012A00004E082894DF6FF731A4082817047028BF9
:1012B00002F47F420283028B0A430283704721B10A
:1012C000828942F40042828103E08289C2F30E02E5
:1012D0008281704721B1828A42F40062828204E0F6
:1012E000828A4FF2FF731A4082827047C1F308026C
:1012F0008280704701468888C0F308007047028AE0
:101300004FF6F0731A400282028A0A430282704743
:1013100021B1828942F00202828104E082894FF683
:10132000FD731A408281704782894FF2FF731A4021
:10133000828182890A4382817047028A4FF6DF7375
:101340001A400282028A0A430282704721B1028A4D
:1013500042F48042028204E0028A4BF6FF731A4094
:1013600002827047818941F001018181704721B17A
:10137000828A42F00802828204E0828A4FF6F77382
:101380001A4082827047028BD2B20283028B42EAF9
:1013900001220283704721B1828A42F020028282B8
:1013A00004E0828A4FF6DF731A408282704721B1CF
:1013B000828A42F01002828204E0828A4FF6EF7342
:1013C0001A4082827047828A4FF6FB731A408282EB
:1013D000828A0A438282704721B1828A42F00202E5
:1013E000828204E0828A4FF6FD731A40828270473F
:1013F0001AB1838A0B43838202E0838A8B43838200
:101400007047F0B50346002400260025002040F672
:101410006A17B94200D100BF1846C1F3421401F067
:101420001F06012707FA06F5012C01D10C3004E054
:10143000022C01D1103000E014301AB107682F439C
:10144000076002E00768AF430760F0BD0246002076
:10145000B1F5007F00D100BF13880B400BB1012014
:1014600000E00020704701F40072B2F5007F00D167
:1014700000BFCA430280704770B5024600240023B3
:101480000025002040F66A16B14200D100BFC1F32A
:10149000421501F01F03012606FA03F3012D13D1B3
:1014A0009689334017E000000010014000440040DE
:1014B00000480040004C0040005000400014014033
:1014C00000780040007C0040022D02D1168A334093
:1014D00001E0968A33400C12012606FA04F41688BD
:1014E000344013B10CB1012000E0002070BD10B5F4
:1014F0000022002340F66A14A14200D100BF0A1264
:1015000001249440A3B2DC43048010BD10B504460E
:10151000FE48844208D10121084601F0D2F800219A
:10152000012001F0CEF89DE0B4F1804F08D10121F7
:10153000084601F0B5F80021012001F0B1F891E072
:10154000F348844208D10121022001F0A9F80021CA
:10155000022001F0A5F885E0EE48844208D101217F
:10156000042001F09DF80021042001F099F879E0B1
:10157000E948844208D10121082001F091F80021B6
:10158000082001F08DF86DE0E448844208D1012183
:10159000102001F085F80021102001F081F861E0B1
:1015A000DF48844208D10121202001F079F8002190
:1015B000202001F075F855E0DA48844208D1012175
:1015C000022001F07EF80021022001F07AF849E0C3
:1015D000D548844209D10121080401F072F80021A4
:1015E0004FF4803001F06DF83CE0D048844209D1DE
:1015F0000121480401F065F800214FF4003001F0AA
:1016000060F82FE0CA48844209D10121880401F022
:1016100058F800214FF4802001F053F822E0C5482B
:10162000844208D10121402001F03AF800214020F5
:1016300001F036F816E0C048844208D1012180202C
:1016400001F02EF80021802001F02AF80AE0BB48C2
:10165000844207D10121801501F022F80021A01554
:1016600001F01EF810BD00220288A84B98420ED04F
:10167000AC4B98420BD0B0F1804F08D0A44B9842AD
:1016800005D0A44B984202D0A34B984204D14FF608
:101690008F731A404B881A43A04B984207D0A04B37
:1016A000984204D04FF6FF431A400B891A43028038
:1016B0004B68C3620B880385944B984202D0994BC8
:1016C000984201D18B7A03860123838270474FF0C1
:1016D000FF314160002101800181418081727047AA
:1016E0000185828270470A46002101884FF68F7378
:1016F000194011430180704741627047C1627047D1
:101700000146486A70470146088D704721B102883A
:1017100042F00202028004E002884FF6FD731A4094
:101720000280704721B1028842F00402028004E086
:1017300002884FF6FB731A400280704721B102887D
:1017400042F08002028004E002884FF67F731A4064
:101750000280704702884FF6F7731A4002800288B1
:101760000A430280704702884FF6FF431A40028006
:1017700002880A430280704721B1028842F00102C8
:10178000028004E002884FF6FE731A400280704720
:1017900070B5002400220023058C4FF6FE763540FC
:1017A0000584028C8388048B4FF68F752C40B51E00
:1017B0002C400D882C43751E2A408D892A434D8864
:1017C0002A43524DA84202D0564DA84213D14FF69B
:1017D000F7752A40CD892A434FF6FB752A408D883C
:1017E0002A434FF6FF652B404FF6FF552B400D8ADD
:1017F0002B434D8A2B43838004838D684563028489
:1018000070BD70B5002400220023058C4FF6EF76E2
:1018100035400584028C8388048B48F6FF752C4084
:101820004FF6FF452C400D884FF6FF7606EA05255A
:101830002C434FF6DF752A408D8906EA05152A43A9
:101840004D8806EA05152A43304DA84202D0354D91
:10185000A8421DD14FF67F752A40CD894FF6FF76FD
:1018600006EA05152A434FF6BF752A408D8806EA19
:1018700005152A434FF6FF352B404FF2FF752B40DD
:101880000D8A06EA85052B434D8A06EA85052B431A
:10189000838004838D688563028470BD70B50024E5
:1018A00000220023058C4FF6FF6635400584028C2C
:1018B0008388848B4FF68F752C404FF6FC752C4037
:1018C0000D882C434FF6FF552A408D894FF6FF7641
:1018D00006EA05252A434D8806EA05252A430B4DCD
:1018E000A84202D00F4DA84238D14FF2FF752A40CE
:1018F000CD894FF6FF7606EA05252A434FF6FF35D8
:101900002A408D8806EA05252A4319E00000014097
:101910000004004000080040000C0040001000409F
:101920000014004000040140004001400044014018
:101930000048014000180040001C0040002000400A
:101940004EF6FF752B404DF6FF752B400D8A06EACB
:1019500005152B434D8A06EA05152B4383808483A6
:101960008D68C563028470BD70B500220023002419
:10197000058C4EF6FF7635400584038C8488828B77
:1019800048F6FF752A404FF6FF452A400D884FF66E
:10199000FF7606EA05252A434DF6FF752B408D8913
:1019A00006EA05352B434D8806EA05352B43FE4DE7
:1019B000A84202D0FD4DA84208D14BF6FF752C403D
:1019C0000D8A4FF6FF7606EA85152C4384808283C4
:1019D0008D680564038470BD002101804180818091
:1019E00081608181C18101824182704770B5034667
:1019F000002000241846183001258D40ACB21D8C03
:101A0000A5431D8409B108290AD100EB61000568CE
:101A10004FF68F76354005600568154305600FE089
:101A20000D1FC5F34E052844056848F6FF7635407E
:101A3000056005684FF6FF7606EA02263543056025
:101A400070BD4163704781637047C1637047016433
:101A500070470A460021018B4FF68F7319401143DE
:101A6000018370470A460021018B48F6FF73194035
:101A70004FF6FF7303EA02231943018370470A46B6
:101A80000021818B4FF68F7319401143818370477A
:101A90000A460021818B48F6FF7319404FF6FF7309
:101AA00003EA02231943818370470A460021018B10
:101AB0004FF6F77319401143018370470A4600211E
:101AC000018B4FF2FF7319404FF6FF7303EA0223B5
:101AD0001943018370470A460021818B4FF6F77343
:101AE00019401143818370470A460021818B4FF2D0
:101AF000FF7319404FF6FF7303EA022319438183F2
:101B000070470A460021018B4FF6FB7319401143C1
:101B1000018370470A460021018B4FF6FF331940BD
:101B20004FF6FF7303EA02231943018370470A4605
:101B30000021818B4FF6FB7319401143818370475D
:101B40000A460021818B4FF6FF3319404FF6FF7391
:101B500003EA02231943818370470A460021018B5F
:101B60004FF67F7319401143018370470A460021E5
:101B7000018BC1F30E014FF6FF7303EA02231943F1
:101B8000018370470A460021818B4FF67F7319400D
:101B90001143818370470A460021818BC1F30E01F6
:101BA0004FF6FF7303EA02231943818370470A4605
:101BB0000021018C4FF6FD731940114301847047D9
:101BC0000A460021018C4FF6F77319401143018436
:101BD00070470A460021018C4FF6DF7319404FF61B
:101BE000FF7303EA02131943018470470A46002178
:101BF000018C4FF67F7319404FF6FF7303EA02130F
:101C00001943018470470A460021018C4FF6FF53A7
:101C100019404FF6FF7303EA02231943018470470A
:101C20000A460021018C4FF2FF7319404FF6FF73F3
:101C300003EA02231943018470470A460021018CFC
:101C40004DF6FF7319404FF6FF7303EA0233194351
:101C50000184704730B5002301248C40A3B2048C6A
:101C60009C430484048C02FA01F5ADB22C43048435
:101C700030BD30B5002304248C40A3B2048C9C43B7
:101C80000484048C02FA01F5ADB22C43048430BD07
:101C9000828B4FF2FF331A408283828B4FF6FF73A1
:101CA00003EA01231A4382837047F0B50C461546B8
:101CB000002100220026078C4EF6FF7C07EA0C0765
:101CC0000784818B028C4FF6FF7707EA043640F6D3
:101CD000FF4739404FF6FF7707EA052739434FF6AC
:101CE000FF7707EA0337394345F6FF773A4046F472
:101CF00080573A4381830284F0BD828B4FF6F373A1
:101D00001A408283828B0A4382837047F0B50C4667
:101D10001546002100220026078C4FF6FF6C07EACB
:101D20000C070784818B028C4FF6FF7707EA0426A5
:101D30004FF60C7739404FF6FF7707EA03172F432A
:101D400039434FF2FF573A4046F480773A43818354
:101D50000284F0BD028B4FF2FF331A400283028BE4
:101D60004FF6FF7303EA01231A4302837047F0B56D
:101D70000C461546002100220026078C4FF6EF7C0A
:101D800007EA0C070784018B028C4FF6FF7707EAFE
:101D9000041640F6FF4739404FF6FF7707EA03374E
:101DA00039434FF6FF7703E0000001400004014093
:101DB00007EA052739434FF65F773A4046F01007A8
:101DC0003A4301830284F0BD028B4FF6F3731A404D
:101DD0000283028B0A4302837047F0B50C46154616
:101DE00000210022068C4FF6FE773E400684018BD0
:101DF000028C4FF60C7631407E1C06EA03162E4309
:101E000031434FF6F576324044F001063243018308
:101E10000284F0BD70B505460C46208850B9238970
:101E2000A28861882846FFF7D8FFE1882846FFF797
:101E3000CBFF25E0208804280AD12389A288618865
:101E40002846FFF794FFE1882846FFF783FF17E055
:101E5000208808280AD12389A28861882846FFF7AC
:101E600055FFE1882846FFF748FF09E02389A2884B
:101E700061882846FFF719FFE1882846FFF708FF29
:101E800070BD002101804180012181800021C1803D
:101E9000018170472DE9F04105460C4600260127D7
:101EA000608808B9022600E00026A088012801D138
:101EB000022700E001272088A0B92389A288618831
:101EC0002846FFF78AFFE1882846FFF77DFF238930
:101ED0003A4631462846FFF74AFFE1882846FFF791
:101EE00039FF13E02389A28861882846FFF73FFF66
:101EF000E1882846FFF72EFF23893A4631462846D7
:101F0000FFF76BFFE1882846FFF75EFFBDE8F08131
:101F10000146486B70470146886B70470146C86BA5
:101F200070470146086C70470A884B881A438B88B3
:101F30001A43CB881A430B891A434B891A438B895E
:101F40001A43A0F84420704700210180418081801D
:101F5000C180018141818181704731B1B0F8442055
:101F600042F40042A0F8442005E0B0F84420C2F357
:101F70000E02A0F84420704721B1828842F004028A
:101F8000828004E082884FF6FB731A40828070479B
:101F900021B1828842F00102828004E082884FF6FB
:101FA000FE731A40828070471AB183890B43838184
:101FB00002E083898B4383817047818270470246A8
:101FC0000020138A0B400BB1012000E00020704775
:101FD000CA430282704730B5024600200023002425
:101FE000158A05EA0103958905EA010413B10CB1CC
:101FF000012000E0002030BDCA430282704741EA60
:102000000203A0F8483070471AB183890B438381DB
:1020100002E083898B438381704721B1828842F03B
:102020000802828004E082884FF6F7731A408280AB
:10203000704701894FF6F8721140018170470A46D6
:10204000002101894FF68F731940114301817047B8
:1020500030B504460D4629462046FFF7F0FF20899B
:1020600040F00700208130BD2DE9F04104460D46C7
:1020700016461F46602D06D13B46012231462046BA
:10208000FFF775FE05E03B46012231462046FFF78B
:10209000A4FE29462046FFF7D2FF208940F0070022
:1020A0002081BDE8F08130B50C4600210189C9B21C
:1020B0004FF6FF7505EA03251543254329430181A2
:1020C00030BD2DE9F04105460E46174698460024DE
:1020D00043463A4631462846FFF7E5FF2C894FF63E
:1020E000F870044044F007044FF68F70044044F049
:1020F00070042C81BDE8F081F0B504460D4616460B
:102100001F463B46324629462046FFF7CCFF208932
:1021100040F480402081F0BD82884FF68F731A40D2
:10212000828082880A438280704702894FF6F87362
:102130001A40028102890A430281704702894FF6E0
:102140007F731A40028102890A4302817047F0B509
:102150000C4615461E460021002200230189028BF1
:10216000038C4FF6F877394021434FF6FC473A404D
:1021700040F201173A434FF6DD773B404FF6FF77C9
:1021800007EA06172F433B43018102830384F0BD16
:1021900021B1828842F08002828004E082884FF67A
:1021A0007F731A4082807047A0F85010704700007B
:1021B000F948006840F00100F74908600020F6493E
:1021C00008310860F4480068F4490840F2490860A2
:1021D000F348091D0860F348EF4984310860F0486E
:1021E0001038091D0860EC48006820F48020EA4996
:1021F00008600020E8490C310860E7498C3108602C
:1022000070470021E44A921C117011460870704713
:1022100010B501460022002300204A11012A02D1F4
:10222000DD4C236808E0022A03D1DB4C70342368BC
:1022300002E0D94C7434236801F01F020124944059
:102240001C400CB1012000E0002010BD38B500207A
:1022500000900024002500BF3120FFF7D9FF05467C
:102260000098401C00900098B0F5A04F01D0002DC0
:10227000F2D03120FFF7CCFF08B1012400E00024A8
:10228000204638BD01460020C34A106820F0F800FF
:1022900040EAC10010607047C349086070470021E0
:1022A000BD4A703211701170012802D004280AD181
:1022B00004E00121B84A7032117005E00521B64AE8
:1022C0007032117000E000BF00BF7047B74908606E
:1022D000704770B5049C41EA82150126C6EB53068F
:1022E00045EA0645054345EA0465AB4E361D3560B3
:1022F00070BDAD4908667047820142EA0172A64B83
:1023000084331A607047A8498866704710B5830106
:1023100043EA016343EA02739F4C8834236010BD93
:10232000A14908677047A049C86470470246002069
:10233000994B0833186820F0EC6042EA0103184317
:10234000954B08331860704702460020924B0833C3
:10235000186820F0784042EA010318438E4B083396
:1023600018607047014600208B4A0832106820F040
:10237000030008431060704787480830006800F089
:102380000C00704701460020834A0832106820F094
:10239000F000084310607047014600207E4A083272
:1023A000106820F4E0500843106070470146002098
:1023B000794A0832106820F4604040EAC100106099
:1023C0007047F0B5002100220024022500260223D8
:1023D000714F08373F6807F00C0121B1042905D07F
:1023E000082937D105E0724F076036E0714F07606A
:1023F00033E0694F3F1D3F68C7F38056664F3F1D6E
:102400003F6807F03F036EB16A4FB7FBF3F7DFF8A1
:1024100088C10CF1040CDCF800C0CCF3881C07FB6D
:102420000CF40CE0624FB7FBF3F7DFF86CC10CF172
:10243000040CDCF800C0CCF3881C07FB0CF4564FEE
:102440003F1D3F68C7F301477F1C7D00B4FBF5F7D4
:10245000076002E0564F076000BF00BF4E4F0837CD
:102460003F6807F0F0010909534F7A5C0768D740CD
:102470004760494F08373F6807F4E051890A4E4FDB
:102480007A5C4768D7408760434F08373F6807F456
:102490006041490B484F7A5C4768D740C760F0BD40
:1024A000002100F44072B2F5407F0AD13A4A083266
:1024B000116821F4F811414A02401143364A0832AA
:1024C0001160354A70321268C0F30B031A43324B65
:1024D00070331A6070473549443908607047334992
:1024E000403908607047364908607047014600204F
:1024F000294A8C32106820F01F004A1E1043264AD9
:102500008C321060704701460020234A8C321068DC
:1025100020F4F8504A1E40EA02201F4A8C32106014
:102520007047014600201C4A8C32106820F440108D
:1025300008431060704701460020174A8C3210682B
:1025400020F4400008431060704701460020124A02
:102550008C32106820F440300843106070471949ED
:102560000860704739B10C4A3032126802430A4B96
:1025700030331A6006E0084A303212688243064B54
:1025800030331A607047F9B1034A3432126802439B
:10259000014B34331A601CE000380240FFFFF6EABA
:1025A000103000240030002000004742800E4742D7
:1025B0000024F40000127A005E000020FFFCFF0FF0
:1025C0005C014742E01147428F4A126882438E4BBA
:1025D0001A60704739B18C4A121D126802438A4B47
:1025E0001B1D1A6006E0884A121D12688243864B42
:1025F0001B1D1A60704739B1834A0C3212680243BE
:10260000814B0C331A6006E07F4A0C321268824319
:102610007D4B0C331A60704739B17B4A1032126817
:102620000243794B10331A6006E0774A1032126881
:102630008243754B10331A60704739B1724A243A9D
:1026400012680243704B243B1A6006E06E4A243A3B
:10265000126882436C4B243B1A60704739B16A4A56
:10266000203A12680243684B203B1A6006E0664A33
:10267000203A12688243644B203B1A60704739B19C
:10268000614A1C3A126802435F4B1C3B1A6006E029
:102690005D4A1C3A126882435B4B1C3B1A607047D0
:1026A00039B1594A143A12680243574B143B1A6025
:1026B00006E0554A143A12688243534B143B1A60A1
:1026C000704739B1504A103A126802434E4B103BE2
:1026D0001A6006E04C4A103A126882434A4B103B9B
:1026E0001A60704739B1484A1C3212680243464B9F
:1026F0001C331A6006E0444A1C3212688243424B83
:102700001C331A60704739B13F4A203212680243C5
:102710003D4B20331A6006E03B4A20321268824368
:10272000394B20331A60704739B1374A2432126866
:102730000243354B24331A6006E0334A24321268D0
:102740008243314B24331A60704739B12E4A2C3200
:10275000126802432C4B2C331A6006E02A4A2C32B2
:1027600012688243284B2C331A60704739B1264ACD
:10277000303212680243244B30331A6006E0224A9A
:10278000303212688243204B30331A607047012880
:1027900008D11D493C31096841F008011A4A3C3210
:1027A000116007E018493C31096821F00801164A18
:1027B0003C321160704739B1134A273A127802430C
:1027C000114B273B1A7006E00F4A273A12788243D2
:1027D0000D4B273B1A7070470B484030006840F0A3
:1027E0008070094940310860704701460020064A60
:1027F000283A12680A400AB1012000E00020704720
:1028000001492639087070473438024010B501215B
:102810000802FFF756FF00214FF48070FFF751FFC9
:1028200010BD30B50246002000235068F84C20400F
:102830000D790C6844EA0524204350609068F54CFB
:102840002040D1E903542C438D682C434D7944EA50
:10285000450420439060D06A20F470000C7D641E13
:10286000E4B2234340EA0350D06230BD002101604E
:10287000017141718160C160016101210175704781
:102880000021E54A1168E54A1140D0E900231A43C6
:1028900083681A43C3681A431143E14AC2F8041318
:1028A00070470021016041608160C160704721B1C3
:1028B000826842F00102826003E0826822F0010235
:1028C000826070470A4600214168D64B1940114387
:1028D000416070474162826270470A460021416848
:1028E00021F01F0111434160704738B1CA4909689E
:1028F00041F40001CA4AC2F8041306E0C649096857
:1029000021F40001C64AC2F80413704738B1C24925
:10291000096841F48001C24AC2F8041306E0BE49C6
:10292000096821F48001BE4AC2F804137047F0B56B
:1029300004460D4600200021092D11DDE068A5F1B7
:102940000A0606EB4607072606FA07F18843A5F1B3
:102950000A0606EB460603FA06F10843E0600CE0BF
:10296000206905EB4507072606FA07F1884305EBC2
:10297000450603FA06F108432061072A0FDA606B67
:10298000561E06EB86071F2606FA07F18843561ED9
:1029900006EB860605FA06F10843606322E00D2A7D
:1029A0000FDA206BD61F06EB86071F2606FA07F103
:1029B0008843D61F06EB860605FA06F10843206316
:1029C00010E0E06AA2F10D0606EB86071F2606FA64
:1029D00007F18843A2F10D0606EB860605FA06F11B
:1029E0000843E062F0BD816841F08041816070473A
:1029F000014600208A6802F080420AB1012000E00E
:102A00000020704721B1826842F48062826003E056
:102A1000826822F480628260704721B1826842F04D
:102A20000202826003E0826822F002028260704744
:102A300010B50A4600210023416821F46041531E6D
:102A400041EA4331416010BD21B1426842F4006265
:102A5000426003E0426822F400624260704701462F
:102A6000C86C80B270476C48001D0068704721B187
:102A7000826842F48072826003E0826822F480728D
:102A80008260704721B1826842F40072826003E084
:102A9000826822F400728260704738B15E4909682A
:102AA00041F400515E4AC2F8041306E05A4909682D
:102AB00021F400515A4AC2F804137047F0B5044695
:102AC0001546002000220026092911DDE068A1F149
:102AD0000A0707EB470C072707FA0CF29043A1F10E
:102AE0000A0707EB470703FA07F21043E0600CE020
:102AF000206901EB410C072707FA0CF2904301EB28
:102B0000410703FA07F210432061A06BC0F301569E
:102B1000EF1C06F1010CA7EB0C0707EB870C1F2736
:102B200007FA0CF29043EF1C06F1010CA7EB0C071F
:102B300007EB870701FA07F21043A063F0BD10B559
:102B40000A4600210023816B21F44011531E41EA03
:102B50000351816310BD08B5002300930090009BD2
:102B60000B440093009B1A6008BD0A46002181684F
:102B700021F470211143816070470A460021816869
:102B800021F44011114381607047816841F4800154
:102B900081607047014600208A6802F480020AB111
:102BA000012000E00020704721B1426842F48062B9
:102BB000426003E0426822F480624260704721B1C3
:102BC000426842F48052426003E0426822F480523C
:102BD0004260704708B5024600200090009201F163
:102BE0002800009B184400900098006880B208BD3F
:102BF00010B50B460021D9B2012404FA01F11AB133
:102C000044680C43446002E044688C43446010BD57
:102C1000FFFEFFFCFDF7FFC004230140E030FCFF96
:102C200000200140FFFD3FFF0246002013680B40DB
:102C30000BB1012000E000207047CA4302607047DA
:102C400070B502460020002300240B1255680126AF
:102C50008E4005EA060415681D4015B10CB101202F
:102C600000E0002070BD00220A12D34303607047C9
:102C7000016821F001010160002101604160816073
:102C8000C160016121214161DB49884204D13D21BC
:102C9000D94A103A91608CE0D7491831884205D161
:102CA0004FF47461D44A103A916082E0D2493031D5
:102CB000884205D14FF47411CF4A103A916078E000
:102CC000CD494831884205D14FF07461CA4A103A63
:102CD00091606EE0C8496031884204D1C749C64A54
:102CE000103AD16065E0C4497831884204D1C449C2
:102CF000C14A103AD1605CE0BF499031884204D1AA
:102D0000C049BD4A103AD16053E0BB49A83188425E
:102D100005D14FF03D51B84A103AD16049E0BA4967
:102D2000884204D13D21B84A083A116041E0B649D1
:102D30001831884205D14FF47461B34A083A1160E2
:102D400037E0B1493031884205D14FF47411AE4AB1
:102D5000083A11602DE0AC494831884205D14FF066
:102D60007461A94A083A116023E0A749603188429A
:102D700004D1A249A44A121F11601AE0A249783175
:102D8000884204D19E49A04A121F116011E09E4959
:102D90009031884204D19B499B4A121F116008E080
:102DA0009949A831884204D14FF03D51964A121FEB
:102DB0001160704710B500220268944B1A40CC682D
:102DC0000B6823434C6923438C692343CC69234319
:102DD0000C6A23434C6A23438C6A23434C6B234382
:102DE0008C6B23431A430260426922F00702D1E947
:102DF0000B3423431A4342610B6943604B68836081
:102E00008B68C36010BD0021016041608160C160BA
:102E1000016141618161C161016241628162C1629E
:102E2000016341638163704721B1026842F001028E
:102E3000026003E0026822F001020260704721B1E3
:102E4000026842F40042026003E0026822F4004299
:102E50000260704721B1026842F02002026003E084
:102E6000026822F02002026070474160704701460C
:102E7000486880B2704722B1036843F400230360BE
:102E800003E0036823F4002303600161704721B16C
:102E9000026842F48022026003E0026822F4802289
:102EA000026070470AB1016100E0C16070470146ED
:102EB00000200A6802F400220AB1012000E000208C
:102EC0007047014600200A6802F001020AB10120A1
:102ED00000E000207047014600204A6902F03800F7
:102EE000704730B503460A4600200024464DAB42E9
:102EF00002D24149103901E04349103902F000552E
:102F00000DB14C6800E00C68414D2C4004EA02050C
:102F10000DB1012000E0002030BD02463A4B9A423C
:102F200002D23548103801E03748103801F000531C
:102F30001BB1374B0B40C36002E0354B0B40836045
:102F4000704710B501F080034BB122B1436943F0E3
:102F50008003436103E0436923F0800343618029D8
:102F60000BD02AB1036801F01E042343036004E080
:102F7000036801F01E04A343036010BD70B5024650
:102F8000002000240025204EB24202D21A4B103BF2
:102F900001E01D4B103B1F4E0E4036B11E2606EAC7
:102FA000D124166806EA040502E0566906F0800599
:102FB00001F000560EB15C6800E01C68144E34400D
:102FC00004EA010616B10DB1012000E0002070BD39
:102FD00002460D4B9A4202D20748103801E00A48D7
:102FE000103801F000531BB1094B0B40C36002E0E5
:102FF000074B0B4083607047106002403D0000208B
:10300000400F002000003D20106402403F801CF073
:103010007D0F7D0F3C0F3C0F2DE9FE4F81EA03042D
:1030200004F0004421F0004100944FF0000B23F025
:10303000004350EA01045ED052EA03045BD0C3F3BC
:103040000A54C1F30A552C44A4F2F3340194A0FBB2
:103050000254C1F3130141F48011C3F3130343F489
:10306000801301FB024400FB034E840A970A44EAE2
:10307000815447EA8357A4FB076802958D0A05FB34
:1030800007854FEA932C04FB0C542705029D4FEA59
:10309000065847EA1637B5EB08056EEB070C870EA6
:1030A000920E47EA811742EA8312A7FB0201B6EBB0
:1030B0000B0164EB00042B0D43EA0C335E1844EB68
:1030C0001C50DA465146E7FB0201C5F313044FEAF0
:1030D0000B3343EA14534FEA0432019C43EA0603DC
:1030E000A4F10C040294009CCDE900B400F067F94F
:1030F00003B0BDE8F08F00200146F9E72DE9F04D5F
:1031000081EA030404F0004B21F0004514464FF01F
:10311000000A23F0004150EA050220D054EA0102DF
:103120001DD0C5F30A570246C5F31303C1F31300BC
:10313000C1F30A5640F4801543F48013A7EB060848
:10314000101BD64608F2FD3873EB050002D308F1D8
:10315000010801E092185B41B8F1000F03DA00208A
:103160000146BDE8F08D00204FF4801106468446EC
:103170000EE0171B73EB050705D3121B63EB05036A
:1031800006434CEA010C49084FEA300092185B41B3
:1031900050EA0107EDD152EA030012D082EA04009E
:1031A00083EA0501084305D0101BAB4106D201227A
:1031B000002306E000224FF0004302E06FF001021E
:1031C00053101AEB06004CEB085110EB0A0041EBD0
:1031D0000B01BDE8F04D00F0E3B80EB540F233410D
:1031E00002910021CDE900110A460B4600F0E7F8F4
:1031F00003B000BDC1F30A5210B5C1F3130140F290
:10320000FF3341F480119A4201DA002010BD40F2F0
:1032100033439A42A2F2334203DC524200F079F87F
:1032200010BD904010BD00F0004230F000400AD0C8
:10323000C10D01F56071C0F3160042EA0151C208E8
:1032400040071143704700200146704701F00043DA
:1032500030B421F0004150EA010206D00A0DA2F577
:103260006072C1F31301002A02DC30BC00207047F9
:10327000440F44EAC104C100E01830BC00EBC25066
:1032800000F057B830B50B4601460020202201243B
:1032900009E021FA02F59D4205D303FA02F5491B24
:1032A00004FA02F52844151EA2F10102F1DC30BD3A
:1032B0002DE9F05F0546002092469B46884606466B
:1032C000814640241BE0284641464746224600F0FE
:1032D00020F853465A46C01A914110D31146184659
:1032E000224600F0A3F92D1A67EB01084F4622464B
:1032F0000120002100F09AF917EB00094E41201E31
:10330000A4F10104DFDC484631462A464346BDE8C5
:10331000F09F202A04DB203A21FA02F000217047B6
:1033200021FA02F3D040C2F120029140084319462D
:1033300070470029A8BF7047401C490008BF20F013
:103340000100704710B4B0FA80FC00FA0CF050EAAB
:10335000010404BF10BC704749B1CCF1200421FA2C
:1033600004F411FA0CF118BF012121430843A3EB27
:103370000C01CB1D4FEA00614FEA102042BF002034
:1033800010BC704700EBC35010440029A4BF10BC10
:103390007047401C490008BF20F0010010BC704776
:1033A00010B5141E73F1000408DA401C41F100014D
:1033B00092185B411A4301D120F0010010BD2DE9A4
:1033C000F04D92469B4611B1B1FA81F202E0B0FA9B
:1033D00080F22032904600F029F904460F4640EA78
:1033E0000A0041EA0B0153465A46084313D01146DE
:1033F00053EA010019D0C8F140025046FFF789FF97
:1034000005460E4650465946424600F00FF908431D
:1034100005D0012004E020463946BDE8F08D0020AB
:10342000054346EAE0762C4337430A986305E40AED
:10343000A0EB08000022FD0A44EA47540A3002D5F6
:1034400000200146E9E7010510196941DDE9084559
:1034500000196941BDE8F04DA2E72DE9FE4F804615
:1034600081EA0300C00F0C46009021F0004123F0D8
:103470000045B8EB0200A94105D2404621469046DE
:103480001C460B46024623F00040104347D0270D50
:10349000C7F30A00C3F30A510290401A0190402872
:1034A0006BDAC3F3130040F4801B0098924620B1FE
:1034B0000023D2EB030A63EB0B0B01985946C0F1D2
:1034C0004002504600F0B2F806460D4650465946B6
:1034D000019A00F0BAF810EB08006141002487EA75
:1034E000115284EAE7731A4340D0009A62B3019AFA
:1034F000012A4FEA075215DC001B61EB02014FF075
:10350000004202EA0752CDE90042001C41F5801159
:1035100032462B46FFF753FF03B0BDE8F08F40461D
:103520002146F9E7001B61EB0201001C41F5801305
:1035300000185B412018A2F5001747EB030140EA91
:10354000D570B6196D4111E06D084FEA360645EAAF
:10355000C0754FEA0752001B61EB0201001C41F5E8
:10356000801149084FEA30000019514132462B467C
:1035700003B0BDE8F04FFFF713BF009801224000F1
:103580000023D0EB020263EBE073009821464FEA80
:10359000E074B8EB000061EB0401E9E783F000435D
:1035A0005BE781F0004158E7C1F30A52C1F3130110
:1035B00040F2FF3341F480119A4202DA00200146C2
:1035C000704740F233439A42A2F2334202DC524245
:1035D000FFF79FBE00F02AB830B5041E71F1000459
:1035E00004DB4FF00044404264EB0101141E73F110
:1035F000000405DB1C464FF00043524263EB04031A
:10360000994208BF904230BD064C074D06E0E06885
:1036100040F0010394E8070098471034AC42F6D319
:10362000FCF7B6FD443F0008643F0008202A04DB95
:10363000203A00FA02F1002070479140C2F12003C5
:1036400020FA03F3194390407047202A06DBCB177A
:10365000203A41FA02F043EAE07306E041FA02F34D
:10366000D040C2F120029140084319467047000043
:103670000FB4054B10B503A9044A029800F0CAF82C
:1036800010BC5DF814FB0000DB0B000858000020A4
:1036900002E008C8121F08C1002AFAD1704770471B
:1036A000002001E001C1121F002AFBD17047000079
:1036B0002DE9FF5FDDE90220010DDDF838B002439E
:1036C00018D044F61050A1F2FF3141430D140F9869
:1036D000012820D0A5EB0B00401C5FEA000A4FF048
:1036E0000004474EDFF81C91A046504616D5CAF19B
:1036F000000728E00F98012443A2012808D00021E8
:1037000000980F9BC0E90021C0E90243BDE8FF9F7C
:103710006FEA0B01F4E7CBF10000DEE7074612E0A9
:10372000F80707D02246334640464946FFF774FC67
:10373000804689462246334610461946FFF76CFC00
:1037400004460E467F10002FEAD1DDE90201BAF1EE
:10375000000F42464B4602DAFFF75EFC01E0FFF73E
:10376000CDFC04460E460022284BFFF735FF03D858
:103770004FF0FF30014607E00022254B204631463E
:10378000FFF76BFEFFF710FF102409E0002C0ADBA7
:103790000A220023FFF78CFD019B30321A55641E6C
:1037A00050EA0102F2D1641C019AC4F111031444DD
:1037B0000F9A012A03D0012208430DD10AE00843E1
:1037C00004D000204FF0110B0F9080E7A3EB0B0506
:1037D0006D1E0DE05B4504DD4FF0000205F10105B3
:1037E00004E003DA4FF00002A5F10105002AECD055
:1037F00000980F99C0E90231C0E9004586E7000052
:10380000000024400000F03F300000000000F043C2
:103810000000E03F2DE9FF4F95B09B4689460646E4
:1038200000250FE2252877D100242746F84A0121F8
:10383000059400E0044316F8013F203B01FA03F031
:103840001042F7D130782A2811D06FF02F0330784A
:10385000A0F13002092A16D8059A44F0020402EBBE
:10386000820203EB42021044761C0590EFE759F800
:10387000042B0592002A03DA504244F400540590C8
:1038800044F00204761C30782E2816D116F8010F69
:1038900044F004042A280DD06FF02F023078A0F1F4
:1038A0003003092B09D807EB870302EB4303C71842
:1038B000761CF3E759F8047B761C30786C280FD01F
:1038C00006DC4C2817D068280DD06A2814D104E0F3
:1038D000742810D07A280FD10DE044F400140AE0C7
:1038E00044F4801401E044F440147278824202D11E
:1038F00004F58014761C761C307866280BD013DC17
:10390000582877D009DC002875D04528F6D04628FD
:10391000F4D047281AD19DE118E0632835D06428F7
:1039200079D0652812D195E1702873D008DC67281A
:10393000F1D069286FD06E280DD06F2806D1B5E080
:1039400073282CD0752875D0782874D05A461799CA
:1039500090476D1C75E1C4F30250022809D003287A
:103960000DD0D9F8001004280DD00D6009F104091C
:1039700067E1D9F80010EA17C1E90052F6E7D9F873
:1039800000100D80F2E70D70F0E719F8041B8DF8B8
:10399000001000208DF80100EA46012003E059F8EC
:1039A00004AB4FF0FF3061074FF0000102D40DE08F
:1039B00008F101018846B9420FDA8045F8DB1AF8B0
:1039C00008100029F4D108E008F10101884681427D
:1039D000FADB1AF808100029F6D105985B46A0EB2F
:1039E000080721463846179A00F094FA284400EB5D
:1039F000080507E04DE029E10DE01AF8010B5A46F1
:103A000017999047B8F10108F7D25B46214638462E
:103A1000179A13E142E00A220092C4F302524FF0D7
:103A2000000A022A08D059F804CB032A4FEAEC71A5
:103A30000AD00DE029E02AE009F1070121F0070290
:103A4000F2E802C1914609E00FFA8CFC4FEAEC71F2
:103A5000042A03D14FFA8CFC4FEAEC71002907DAF3
:103A60000A460021DCF1000C61EB02012D2202E08C
:103A7000220504D52B228DF80420012203E0E20761
:103A800001D02022F7E7904659E00A2102E01022F7
:103A90000DE010214FF0000A00910BE010224FF0D2
:103AA000000A44F004040827009203E008224FF0C3
:103AB000000A0092C4F30252022A05D059F804CB3E
:103AC0000021032A08D009E009F1070121F00702CB
:103AD000F2E802C1914605E01FFA8CFC042A01D1EC
:103AE0000CF0FF0C4FF00008220728D5702806D0F4
:103AF000009B83F0100353EA0A0305D00EE0402236
:103B00008DF80420012208E05CEA010206D0302290
:103B10008DF804208DF8050002229046009B83F06A
:103B2000080353EA0A030AD15CEA010201D16207E1
:103B300005D530228DF804204FF001087F1E58284B
:103B400004D034A003900EA802900DE036A0F9E74F
:103B500053466046009AFFF7ABFB84460398825CAD
:103B60000298401E029002705CEA0100F0D10298B7
:103B700006A9081A00F1200A600702D524F480344F
:103B800000E00127574502DDA7EB0A0000E0002016
:103B900000EB0A01009005984144401A0590E003AB
:103BA00006D45B462146179A059800F0B3F9054400
:103BB000002706E001A85A46C05D179990476D1C82
:103BC0007F1C4745F6DBE0030CD55B462146179A80
:103BD000059800F09FF9054404E030205A461799F3
:103BE00090476D1C0099481E00900029F5DC08E004
:103BF000029802995A460078491C029117999047F9
:103C00006D1CBAF10001AAF1010AF1DC65E10000C6
:103C100009280100303132333435363738396162A2
:103C20006364656600000000303132333435363766
:103C300038394142434445460000000000F058F93D
:103C40000544761C307800287FF4ECAD19B0284686
:103C5000BDE8F08F620700D4062709F1070222F0C1
:103C6000070CFCE80223E14603F000485FEA080C79
:103C700002D00FF2702C0DE05FEA045C02D50FF267
:103C8000682C07E05FEAC47C02D00FF2602C01E0F0
:103C9000AFF2700C4FF0FF3823F00043CDF850C066
:103CA00065280CD006DC452809D046281DD04728B9
:103CB0003DD13DE0662818D067287ED138E000214C
:103CC000112F01DB112000E0781CCDE9000106A9CD
:103CD0000EA8FFF7EDFCDDE90F010E9A039100211C
:103CE000009207F1010A04914DE04FF00040009767
:103CF000CDE9011006A90EA8FFF7DAFCDDE90F02F5
:103D000003920E9B11990022DDF80CA000930492FF
:103D100011B9791C00EB010AB7EB0A0004D4C0F119
:103D2000FF3007F1010A0490AAEB0700019044E07C
:103D3000012F00DA01270021112F01DD112000E001
:103D40003846CDE9000106A90EA8FFF7B1FCDDE970
:103D50000F010E9A0391002104910092BA462107A7
:103D60000CD40399514500DA8A46BAF1010F05DDFA
:103D7000009AAAF10101515C302908D0B84202DA58
:103D800010F1040F06DA0121CDE9011015E0AAF1C6
:103D90000101E9E7002805DC049901440491AAEB3C
:103DA000000102E0411C514500DD8A460499401A99
:103DB000401C01904FF000400290200704D401986D
:103DC000504501DBCDF8048000208DF84F000298AB
:103DD0000DF14F07B0F1004F25D02B200E90029827
:103DE0004FF0020800280CDA404202902D200E907D
:103DF00007E00A210298FFF745FA3031029007F8F0
:103E0000011DB8F10001A8F10108F2DC02980028B8
:103E1000EFD1791E0E980870307800F0200040F045
:103E2000450007F8020D12A8C01B00F107081498FE
:103E3000007800B1012000EB0A01019801EBE0716C
:103E400005984144401A401E0590E00306D45B46A5
:103E50002146179A059800F05DF8054414980078FB
:103E600018B15A46179990476D1CE00324D55B465C
:103E70002146179A059800F04DF805441CE0049877
:103E8000002807DBDDE90301884203DD0098405C80
:103E9000179901E0179930205A469047049805F188
:103EA0000105401C04900198401E019004D12E2071
:103EB0005A46179990476D1CBAF10001AAF1010A00
:103EC000DDDC05E017F8010B5A46179990476D1C89
:103ED000B8F10001A8F10108F4DC5B462146179A0D
:103EE0000598ABE62D0000002B000000200000002C
:103EF0002DE9F041044600251E461746880404D4E7
:103F000005E039462020B0476D1C641EF9D52846CF
:103F1000BDE8F0812DE9F041044600251E4690469B
:103F2000C80301D5302700E02027880404D505E028
:103F300041463846B0476D1C641EF9D52846BDE899
:103F4000F0810000643F00080000002070000000C5
:103F500090360008D43F000870000020C80400001C
:103F6000A0360008007A030A0000000000000000EC
:103F70000102030406070809000000000000000019
:103F80000000000000000000000000000000000031
:103F9000000000009A99F93FCDCC0C4000000000D1
:103FA00000000000000016430000000000000000B8
:103FB0000000000000000000000000000000000001
:103FC00000000000000001020304010203040607D0
:043FD00008090000DC
:040000050800018965
:00000001FF
